{
  "_format": "hh-sol-artifact-1",
  "contractName": "BasedCoin",
  "sourceName": "contracts/BasedCoin.sol",
  "abi": [
    {
      "inputs": [
        {
          "internalType": "address",
          "name": "initialAddress",
          "type": "address"
        }
      ],
      "stateMutability": "nonpayable",
      "type": "constructor"
    },
    {
      "inputs": [],
      "name": "InvalidShortString",
      "type": "error"
    },
    {
      "inputs": [
        {
          "internalType": "string",
          "name": "str",
          "type": "string"
        }
      ],
      "name": "StringTooLong",
      "type": "error"
    },
    {
      "anonymous": false,
      "inputs": [
        {
          "indexed": true,
          "internalType": "address",
          "name": "owner",
          "type": "address"
        },
        {
          "indexed": true,
          "internalType": "address",
          "name": "spender",
          "type": "address"
        },
        {
          "indexed": false,
          "internalType": "uint256",
          "name": "value",
          "type": "uint256"
        }
      ],
      "name": "Approval",
      "type": "event"
    },
    {
      "anonymous": false,
      "inputs": [
        {
          "indexed": true,
          "internalType": "address",
          "name": "delegator",
          "type": "address"
        },
        {
          "indexed": true,
          "internalType": "address",
          "name": "fromDelegate",
          "type": "address"
        },
        {
          "indexed": true,
          "internalType": "address",
          "name": "toDelegate",
          "type": "address"
        }
      ],
      "name": "DelegateChanged",
      "type": "event"
    },
    {
      "anonymous": false,
      "inputs": [
        {
          "indexed": true,
          "internalType": "address",
          "name": "delegate",
          "type": "address"
        },
        {
          "indexed": false,
          "internalType": "uint256",
          "name": "previousBalance",
          "type": "uint256"
        },
        {
          "indexed": false,
          "internalType": "uint256",
          "name": "newBalance",
          "type": "uint256"
        }
      ],
      "name": "DelegateVotesChanged",
      "type": "event"
    },
    {
      "anonymous": false,
      "inputs": [],
      "name": "EIP712DomainChanged",
      "type": "event"
    },
    {
      "anonymous": false,
      "inputs": [
        {
          "indexed": true,
          "internalType": "address",
          "name": "previousOwner",
          "type": "address"
        },
        {
          "indexed": true,
          "internalType": "address",
          "name": "newOwner",
          "type": "address"
        }
      ],
      "name": "OwnershipTransferred",
      "type": "event"
    },
    {
      "anonymous": false,
      "inputs": [
        {
          "indexed": true,
          "internalType": "address",
          "name": "from",
          "type": "address"
        },
        {
          "indexed": true,
          "internalType": "address",
          "name": "to",
          "type": "address"
        },
        {
          "indexed": false,
          "internalType": "uint256",
          "name": "value",
          "type": "uint256"
        }
      ],
      "name": "Transfer",
      "type": "event"
    },
    {
      "inputs": [],
      "name": "CLOCK_MODE",
      "outputs": [
        {
          "internalType": "string",
          "name": "",
          "type": "string"
        }
      ],
      "stateMutability": "view",
      "type": "function"
    },
    {
      "inputs": [],
      "name": "DOMAIN_SEPARATOR",
      "outputs": [
        {
          "internalType": "bytes32",
          "name": "",
          "type": "bytes32"
        }
      ],
      "stateMutability": "view",
      "type": "function"
    },
    {
      "inputs": [
        {
          "internalType": "address",
          "name": "owner",
          "type": "address"
        },
        {
          "internalType": "address",
          "name": "spender",
          "type": "address"
        }
      ],
      "name": "allowance",
      "outputs": [
        {
          "internalType": "uint256",
          "name": "",
          "type": "uint256"
        }
      ],
      "stateMutability": "view",
      "type": "function"
    },
    {
      "inputs": [
        {
          "internalType": "address",
          "name": "spender",
          "type": "address"
        },
        {
          "internalType": "uint256",
          "name": "amount",
          "type": "uint256"
        }
      ],
      "name": "approve",
      "outputs": [
        {
          "internalType": "bool",
          "name": "",
          "type": "bool"
        }
      ],
      "stateMutability": "nonpayable",
      "type": "function"
    },
    {
      "inputs": [
        {
          "internalType": "address",
          "name": "account",
          "type": "address"
        }
      ],
      "name": "balanceOf",
      "outputs": [
        {
          "internalType": "uint256",
          "name": "",
          "type": "uint256"
        }
      ],
      "stateMutability": "view",
      "type": "function"
    },
    {
      "inputs": [
        {
          "internalType": "address",
          "name": "account",
          "type": "address"
        },
        {
          "internalType": "uint32",
          "name": "pos",
          "type": "uint32"
        }
      ],
      "name": "checkpoints",
      "outputs": [
        {
          "components": [
            {
              "internalType": "uint32",
              "name": "fromBlock",
              "type": "uint32"
            },
            {
              "internalType": "uint224",
              "name": "votes",
              "type": "uint224"
            }
          ],
          "internalType": "struct ERC20Votes.Checkpoint",
          "name": "",
          "type": "tuple"
        }
      ],
      "stateMutability": "view",
      "type": "function"
    },
    {
      "inputs": [],
      "name": "clock",
      "outputs": [
        {
          "internalType": "uint48",
          "name": "",
          "type": "uint48"
        }
      ],
      "stateMutability": "view",
      "type": "function"
    },
    {
      "inputs": [],
      "name": "decimals",
      "outputs": [
        {
          "internalType": "uint8",
          "name": "",
          "type": "uint8"
        }
      ],
      "stateMutability": "view",
      "type": "function"
    },
    {
      "inputs": [
        {
          "internalType": "address",
          "name": "spender",
          "type": "address"
        },
        {
          "internalType": "uint256",
          "name": "subtractedValue",
          "type": "uint256"
        }
      ],
      "name": "decreaseAllowance",
      "outputs": [
        {
          "internalType": "bool",
          "name": "",
          "type": "bool"
        }
      ],
      "stateMutability": "nonpayable",
      "type": "function"
    },
    {
      "inputs": [
        {
          "internalType": "address",
          "name": "delegatee",
          "type": "address"
        }
      ],
      "name": "delegate",
      "outputs": [],
      "stateMutability": "nonpayable",
      "type": "function"
    },
    {
      "inputs": [
        {
          "internalType": "address",
          "name": "delegatee",
          "type": "address"
        },
        {
          "internalType": "uint256",
          "name": "nonce",
          "type": "uint256"
        },
        {
          "internalType": "uint256",
          "name": "expiry",
          "type": "uint256"
        },
        {
          "internalType": "uint8",
          "name": "v",
          "type": "uint8"
        },
        {
          "internalType": "bytes32",
          "name": "r",
          "type": "bytes32"
        },
        {
          "internalType": "bytes32",
          "name": "s",
          "type": "bytes32"
        }
      ],
      "name": "delegateBySig",
      "outputs": [],
      "stateMutability": "nonpayable",
      "type": "function"
    },
    {
      "inputs": [
        {
          "internalType": "address",
          "name": "account",
          "type": "address"
        }
      ],
      "name": "delegates",
      "outputs": [
        {
          "internalType": "address",
          "name": "",
          "type": "address"
        }
      ],
      "stateMutability": "view",
      "type": "function"
    },
    {
      "inputs": [],
      "name": "eip712Domain",
      "outputs": [
        {
          "internalType": "bytes1",
          "name": "fields",
          "type": "bytes1"
        },
        {
          "internalType": "string",
          "name": "name",
          "type": "string"
        },
        {
          "internalType": "string",
          "name": "version",
          "type": "string"
        },
        {
          "internalType": "uint256",
          "name": "chainId",
          "type": "uint256"
        },
        {
          "internalType": "address",
          "name": "verifyingContract",
          "type": "address"
        },
        {
          "internalType": "bytes32",
          "name": "salt",
          "type": "bytes32"
        },
        {
          "internalType": "uint256[]",
          "name": "extensions",
          "type": "uint256[]"
        }
      ],
      "stateMutability": "view",
      "type": "function"
    },
    {
      "inputs": [],
      "name": "enableTrading",
      "outputs": [],
      "stateMutability": "nonpayable",
      "type": "function"
    },
    {
      "inputs": [
        {
          "internalType": "uint256",
          "name": "timepoint",
          "type": "uint256"
        }
      ],
      "name": "getPastTotalSupply",
      "outputs": [
        {
          "internalType": "uint256",
          "name": "",
          "type": "uint256"
        }
      ],
      "stateMutability": "view",
      "type": "function"
    },
    {
      "inputs": [
        {
          "internalType": "address",
          "name": "account",
          "type": "address"
        },
        {
          "internalType": "uint256",
          "name": "timepoint",
          "type": "uint256"
        }
      ],
      "name": "getPastVotes",
      "outputs": [
        {
          "internalType": "uint256",
          "name": "",
          "type": "uint256"
        }
      ],
      "stateMutability": "view",
      "type": "function"
    },
    {
      "inputs": [
        {
          "internalType": "address",
          "name": "account",
          "type": "address"
        }
      ],
      "name": "getVotes",
      "outputs": [
        {
          "internalType": "uint256",
          "name": "",
          "type": "uint256"
        }
      ],
      "stateMutability": "view",
      "type": "function"
    },
    {
      "inputs": [
        {
          "internalType": "address",
          "name": "spender",
          "type": "address"
        },
        {
          "internalType": "uint256",
          "name": "addedValue",
          "type": "uint256"
        }
      ],
      "name": "increaseAllowance",
      "outputs": [
        {
          "internalType": "bool",
          "name": "",
          "type": "bool"
        }
      ],
      "stateMutability": "nonpayable",
      "type": "function"
    },
    {
      "inputs": [],
      "name": "name",
      "outputs": [
        {
          "internalType": "string",
          "name": "",
          "type": "string"
        }
      ],
      "stateMutability": "view",
      "type": "function"
    },
    {
      "inputs": [
        {
          "internalType": "address",
          "name": "owner",
          "type": "address"
        }
      ],
      "name": "nonces",
      "outputs": [
        {
          "internalType": "uint256",
          "name": "",
          "type": "uint256"
        }
      ],
      "stateMutability": "view",
      "type": "function"
    },
    {
      "inputs": [
        {
          "internalType": "address",
          "name": "account",
          "type": "address"
        }
      ],
      "name": "numCheckpoints",
      "outputs": [
        {
          "internalType": "uint32",
          "name": "",
          "type": "uint32"
        }
      ],
      "stateMutability": "view",
      "type": "function"
    },
    {
      "inputs": [],
      "name": "owner",
      "outputs": [
        {
          "internalType": "address",
          "name": "",
          "type": "address"
        }
      ],
      "stateMutability": "view",
      "type": "function"
    },
    {
      "inputs": [
        {
          "internalType": "address",
          "name": "owner",
          "type": "address"
        },
        {
          "internalType": "address",
          "name": "spender",
          "type": "address"
        },
        {
          "internalType": "uint256",
          "name": "value",
          "type": "uint256"
        },
        {
          "internalType": "uint256",
          "name": "deadline",
          "type": "uint256"
        },
        {
          "internalType": "uint8",
          "name": "v",
          "type": "uint8"
        },
        {
          "internalType": "bytes32",
          "name": "r",
          "type": "bytes32"
        },
        {
          "internalType": "bytes32",
          "name": "s",
          "type": "bytes32"
        }
      ],
      "name": "permit",
      "outputs": [],
      "stateMutability": "nonpayable",
      "type": "function"
    },
    {
      "inputs": [],
      "name": "renounceOwnership",
      "outputs": [],
      "stateMutability": "nonpayable",
      "type": "function"
    },
    {
      "inputs": [
        {
          "internalType": "address",
          "name": "pair",
          "type": "address"
        }
      ],
      "name": "setPairAddress",
      "outputs": [],
      "stateMutability": "nonpayable",
      "type": "function"
    },
    {
      "inputs": [],
      "name": "symbol",
      "outputs": [
        {
          "internalType": "string",
          "name": "",
          "type": "string"
        }
      ],
      "stateMutability": "view",
      "type": "function"
    },
    {
      "inputs": [],
      "name": "totalSupply",
      "outputs": [
        {
          "internalType": "uint256",
          "name": "",
          "type": "uint256"
        }
      ],
      "stateMutability": "view",
      "type": "function"
    },
    {
      "inputs": [],
      "name": "tradingActive",
      "outputs": [
        {
          "internalType": "bool",
          "name": "",
          "type": "bool"
        }
      ],
      "stateMutability": "view",
      "type": "function"
    },
    {
      "inputs": [
        {
          "internalType": "address",
          "name": "to",
          "type": "address"
        },
        {
          "internalType": "uint256",
          "name": "amount",
          "type": "uint256"
        }
      ],
      "name": "transfer",
      "outputs": [
        {
          "internalType": "bool",
          "name": "",
          "type": "bool"
        }
      ],
      "stateMutability": "nonpayable",
      "type": "function"
    },
    {
      "inputs": [
        {
          "internalType": "address",
          "name": "from",
          "type": "address"
        },
        {
          "internalType": "address",
          "name": "to",
          "type": "address"
        },
        {
          "internalType": "uint256",
          "name": "amount",
          "type": "uint256"
        }
      ],
      "name": "transferFrom",
      "outputs": [
        {
          "internalType": "bool",
          "name": "",
          "type": "bool"
        }
      ],
      "stateMutability": "nonpayable",
      "type": "function"
    },
    {
      "inputs": [
        {
          "internalType": "address",
          "name": "newOwner",
          "type": "address"
        }
      ],
      "name": "transferOwnership",
      "outputs": [],
      "stateMutability": "nonpayable",
      "type": "function"
    }
  ],
  "bytecode": "0x610160604052600c805460ff60a01b191690553480156200001f57600080fd5b50604051620039e2380380620039e28339810160408190526200004291620008c6565b6040518060400160405280600a8152602001692130b9b2b21021b7b4b760b11b81525080604051806040016040528060018152602001603160f81b8152506040518060400160405280600a8152602001692130b9b2b21021b7b4b760b11b81525060405180604001604052806005815260200164109054d15160da1b8152508160039081620000d2919062000997565b506004620000e1828262000997565b50620000f391508390506005620001c6565b6101205262000104816006620001c6565b61014052815160208084019190912060e052815190820120610100524660a0526200019260e05161010051604080517f8b73c3c69bb8fe3d512ecc4cf759cc79239f7b179b0ffacaa9a75d522b39400f60208201529081019290925260608201524660808201523060a082015260009060c00160405160208183030381529060405280519060200120905090565b60805250503060c05250620001a733620001ff565b620001bf816be04ee0ccb27ac646ac00000062000251565b5062000b1b565b6000602083511015620001e657620001de8362000261565b9050620001f9565b81620001f3848262000997565b5060ff90505b92915050565b600c80546001600160a01b038381166001600160a01b0319831681179093556040519116919082907f8be0079c531659141344cd1fd0a4f28419497f9722a3daafe3b4186f6b6457e090600090a35050565b6200025d8282620002ad565b5050565b600080829050601f8151111562000298578260405163305a27a960e01b81526004016200028f919062000a63565b60405180910390fd5b8051620002a58262000ab4565b179392505050565b620002b9828262000355565b6001600160e01b03620002cd620004308216565b1115620003365760405162461bcd60e51b815260206004820152603060248201527f4552433230566f7465733a20746f74616c20737570706c79207269736b73206f60448201526f766572666c6f77696e6720766f74657360801b60648201526084016200028f565b6200034f600b620010fd6200043660201b17836200044b565b50505050565b6001600160a01b038216620003ad5760405162461bcd60e51b815260206004820152601f60248201527f45524332303a206d696e7420746f20746865207a65726f20616464726573730060448201526064016200028f565b620003bb60008383620005d3565b8060026000828254620003cf919062000aef565b90915550506001600160a01b038216600081815260208181526040808320805486019055518481527fddf252ad1be2c89b69c2b068fc378daa952ba7f163c4a11628f55a4df523b3ef910160405180910390a36200025d60008383620005eb565b60025490565b600062000444828462000aef565b9392505050565b825460009081908181156200049a5760008781526020902082016000190160408051808201909152905463ffffffff8116825264010000000090046001600160e01b03166020820152620004af565b60408051808201909152600080825260208201525b905080602001516001600160e01b03169350620004cd84868860201c565b9250600082118015620004fa5750620004e5620005f8565b65ffffffffffff16816000015163ffffffff16145b1562000543576200050b836200060a565b60008881526020902083016000190180546001600160e01b03929092166401000000000263ffffffff909216919091179055620005c9565b8660405180604001604052806200057162000563620005f860201b60201c565b65ffffffffffff1662000679565b63ffffffff16815260200162000587866200060a565b6001600160e01b0390811690915282546001810184556000938452602093849020835194909301519091166401000000000263ffffffff909316929092179101555b5050935093915050565b620005e68383836001600160e01b038416565b505050565b620005e6838383620006e0565b6000620006054362000714565b905090565b60006001600160e01b03821115620006755760405162461bcd60e51b815260206004820152602760248201527f53616665436173743a2076616c756520646f65736e27742066697420696e20326044820152663234206269747360c81b60648201526084016200028f565b5090565b600063ffffffff821115620006755760405162461bcd60e51b815260206004820152602660248201527f53616665436173743a2076616c756520646f65736e27742066697420696e203360448201526532206269747360d01b60648201526084016200028f565b6001600160a01b03838116600090815260096020526040808220548584168352912054620005e6929182169116836200077d565b600065ffffffffffff821115620006755760405162461bcd60e51b815260206004820152602660248201527f53616665436173743a2076616c756520646f65736e27742066697420696e203460448201526538206269747360d01b60648201526084016200028f565b816001600160a01b0316836001600160a01b031614158015620007a05750600081115b15620005e6576001600160a01b038316156200082d576001600160a01b0383166000908152600a6020908152604082208291620007ea9190620008b8901b6200110917856200044b565b91509150846001600160a01b0316600080516020620039c2833981519152838360405162000822929190918252602082015260400190565b60405180910390a250505b6001600160a01b03821615620005e6576001600160a01b0382166000908152600a602090815260408220829162000871919062000436901b620010fd17856200044b565b91509150836001600160a01b0316600080516020620039c28339815191528383604051620008a9929190918252602082015260400190565b60405180910390a25050505050565b600062000444828462000b05565b600060208284031215620008d957600080fd5b81516001600160a01b03811681146200044457600080fd5b634e487b7160e01b600052604160045260246000fd5b600181811c908216806200091c57607f821691505b6020821081036200093d57634e487b7160e01b600052602260045260246000fd5b50919050565b601f821115620005e6576000816000526020600020601f850160051c810160208610156200096e5750805b601f850160051c820191505b818110156200098f578281556001016200097a565b505050505050565b81516001600160401b03811115620009b357620009b3620008f1565b620009cb81620009c4845462000907565b8462000943565b602080601f83116001811462000a035760008415620009ea5750858301515b600019600386901b1c1916600185901b1785556200098f565b600085815260208120601f198616915b8281101562000a345788860151825594840194600190910190840162000a13565b508582101562000a535787850151600019600388901b60f8161c191681555b5050505050600190811b01905550565b60006020808352835180602085015260005b8181101562000a935785810183015185820160400152820162000a75565b506000604082860101526040601f19601f8301168501019250505092915050565b805160208083015191908110156200093d5760001960209190910360031b1b16919050565b634e487b7160e01b600052601160045260246000fd5b80820180821115620001f957620001f962000ad9565b81810381811115620001f957620001f962000ad9565b60805160a05160c05160e051610100516101205161014051612e4c62000b76600039600061088401526000610859015260006117ea015260006117c20152600061171d01526000611747015260006117710152612e4c6000f3fe608060405234801561001057600080fd5b50600436106101e55760003560e01c806384b0196e1161010f578063a457c2d7116100a2578063d505accf11610071578063d505accf14610480578063dd62ed3e14610493578063f1127ed8146104d9578063f2fde38b1461052b57600080fd5b8063a457c2d714610422578063a9059cbb14610435578063bbc0c74214610448578063c3cda5201461046d57600080fd5b806391ddadf4116100de57806391ddadf4146103d557806395d89b41146103f45780639ab24eb0146103fc578063a22d48321461040f57600080fd5b806384b0196e146103815780638a8c523c1461039c5780638da5cb5b146103a45780638e539e8c146103c257600080fd5b80633a46b1a8116101875780636fcfff45116101565780636fcfff451461030857806370a0823114610330578063715018a6146103665780637ecebe001461036e57600080fd5b80633a46b1a81461027a5780634bf5d7e91461028d578063587cde1e146102955780635c19a95c146102f357600080fd5b806323b872dd116101c357806323b872dd1461023d578063313ce567146102505780633644e5151461025f578063395093511461026757600080fd5b806306fdde03146101ea578063095ea7b31461020857806318160ddd1461022b575b600080fd5b6101f261053e565b6040516101ff91906129ce565b60405180910390f35b61021b610216366004612a0a565b6105d0565b60405190151581526020016101ff565b6002545b6040519081526020016101ff565b61021b61024b366004612a34565b6105ea565b604051601281526020016101ff565b61022f61060e565b61021b610275366004612a0a565b61061d565b61022f610288366004612a0a565b610669565b6101f261071e565b6102ce6102a3366004612a70565b73ffffffffffffffffffffffffffffffffffffffff9081166000908152600960205260409020541690565b60405173ffffffffffffffffffffffffffffffffffffffff90911681526020016101ff565b610306610301366004612a70565b6107d0565b005b61031b610316366004612a70565b6107dd565b60405163ffffffff90911681526020016101ff565b61022f61033e366004612a70565b73ffffffffffffffffffffffffffffffffffffffff1660009081526020819052604090205490565b61030661080c565b61022f61037c366004612a70565b610820565b61038961084b565b6040516101ff9796959493929190612a8b565b6103066108f0565b600c5473ffffffffffffffffffffffffffffffffffffffff166102ce565b61022f6103d0366004612b4d565b6109bc565b6103dd610a41565b60405165ffffffffffff90911681526020016101ff565b6101f2610a4c565b61022f61040a366004612a70565b610a5b565b61030661041d366004612a70565b610b3f565b61021b610430366004612a0a565b610b8e565b61021b610443366004612a0a565b610c5f565b600c5461021b9074010000000000000000000000000000000000000000900460ff1681565b61030661047b366004612b77565b610c6d565b61030661048e366004612bcf565b610de4565b61022f6104a1366004612c39565b73ffffffffffffffffffffffffffffffffffffffff918216600090815260016020908152604080832093909416825291909152205490565b6104ec6104e7366004612c6c565b610fa3565b60408051825163ffffffff1681526020928301517bffffffffffffffffffffffffffffffffffffffffffffffffffffffff1692810192909252016101ff565b610306610539366004612a70565b611049565b60606003805461054d90612cac565b80601f016020809104026020016040519081016040528092919081815260200182805461057990612cac565b80156105c65780601f1061059b576101008083540402835291602001916105c6565b820191906000526020600020905b8154815290600101906020018083116105a957829003601f168201915b5050505050905090565b6000336105de818585611115565b60019150505b92915050565b6000336105f88582856112c8565b61060385858561139f565b506001949350505050565b6000610618611703565b905090565b33600081815260016020908152604080832073ffffffffffffffffffffffffffffffffffffffff871684529091528120549091906105de9082908690610664908790612d28565b611115565b6000610673610a41565b65ffffffffffff1682106106e8576040517f08c379a000000000000000000000000000000000000000000000000000000000815260206004820152601960248201527f4552433230566f7465733a20667574757265206c6f6f6b75700000000000000060448201526064015b60405180910390fd5b73ffffffffffffffffffffffffffffffffffffffff83166000908152600a60205260409020610717908361183b565b9392505050565b606043610729610a41565b65ffffffffffff1614610798576040517f08c379a000000000000000000000000000000000000000000000000000000000815260206004820152601d60248201527f4552433230566f7465733a2062726f6b656e20636c6f636b206d6f646500000060448201526064016106df565b5060408051808201909152601d81527f6d6f64653d626c6f636b6e756d6265722666726f6d3d64656661756c74000000602082015290565b6107da338261196c565b50565b73ffffffffffffffffffffffffffffffffffffffff81166000908152600a60205260408120546105e490611a0a565b610814611aa4565b61081e6000611b25565b565b73ffffffffffffffffffffffffffffffffffffffff81166000908152600760205260408120546105e4565b60006060808280808361087f7f00000000000000000000000000000000000000000000000000000000000000006005611b9c565b6108aa7f00000000000000000000000000000000000000000000000000000000000000006006611b9c565b604080516000808252602082019092527f0f000000000000000000000000000000000000000000000000000000000000009b939a50919850469750309650945092509050565b6108f8611aa4565b600e5473ffffffffffffffffffffffffffffffffffffffff16610977576040517f08c379a000000000000000000000000000000000000000000000000000000000815260206004820152601460248201527f506169722061646472657373206e6f742073657400000000000000000000000060448201526064016106df565b600c80547fffffffffffffffffffffff00ffffffffffffffffffffffffffffffffffffffff167401000000000000000000000000000000000000000017905543600d55565b60006109c6610a41565b65ffffffffffff168210610a36576040517f08c379a000000000000000000000000000000000000000000000000000000000815260206004820152601960248201527f4552433230566f7465733a20667574757265206c6f6f6b75700000000000000060448201526064016106df565b6105e4600b8361183b565b600061061843611c47565b60606004805461054d90612cac565b73ffffffffffffffffffffffffffffffffffffffff81166000908152600a60205260408120548015610b175773ffffffffffffffffffffffffffffffffffffffff83166000908152600a6020526040902080547fffffffffffffffffffffffffffffffffffffffffffffffffffffffffffffffff8301908110610ae057610ae0612d3b565b60009182526020909120015464010000000090047bffffffffffffffffffffffffffffffffffffffffffffffffffffffff16610b1a565b60005b7bffffffffffffffffffffffffffffffffffffffffffffffffffffffff169392505050565b610b47611aa4565b600e80547fffffffffffffffffffffffff00000000000000000000000000000000000000001673ffffffffffffffffffffffffffffffffffffffff92909216919091179055565b33600081815260016020908152604080832073ffffffffffffffffffffffffffffffffffffffff8716845290915281205490919083811015610c52576040517f08c379a000000000000000000000000000000000000000000000000000000000815260206004820152602560248201527f45524332303a2064656372656173656420616c6c6f77616e63652062656c6f7760448201527f207a65726f00000000000000000000000000000000000000000000000000000060648201526084016106df565b6106038286868403611115565b6000336105de81858561139f565b83421115610cd7576040517f08c379a000000000000000000000000000000000000000000000000000000000815260206004820152601d60248201527f4552433230566f7465733a207369676e6174757265206578706972656400000060448201526064016106df565b604080517fe48329057bfd03d55e49b547132e39cffd9c1820ad7b9d4c5307691425d15adf602082015273ffffffffffffffffffffffffffffffffffffffff8816918101919091526060810186905260808101859052600090610d5e90610d569060a00160405160208183030381529060405280519060200120611cdf565b858585611d27565b9050610d6981611d4f565b8614610dd1576040517f08c379a000000000000000000000000000000000000000000000000000000000815260206004820152601960248201527f4552433230566f7465733a20696e76616c6964206e6f6e63650000000000000060448201526064016106df565b610ddb818861196c565b50505050505050565b83421115610e4e576040517f08c379a000000000000000000000000000000000000000000000000000000000815260206004820152601d60248201527f45524332305065726d69743a206578706972656420646561646c696e6500000060448201526064016106df565b60007f6e71edae12b1b97f4d1f60370fef10105fa2faae0126114a169c64845d6126c9888888610e7d8c611d4f565b60408051602081019690965273ffffffffffffffffffffffffffffffffffffffff94851690860152929091166060840152608083015260a082015260c0810186905260e0016040516020818303038152906040528051906020012090506000610ee582611cdf565b90506000610ef582878787611d27565b90508973ffffffffffffffffffffffffffffffffffffffff168173ffffffffffffffffffffffffffffffffffffffff1614610f8c576040517f08c379a000000000000000000000000000000000000000000000000000000000815260206004820152601e60248201527f45524332305065726d69743a20696e76616c6964207369676e6174757265000060448201526064016106df565b610f978a8a8a611115565b50505050505050505050565b604080518082019091526000808252602082015273ffffffffffffffffffffffffffffffffffffffff83166000908152600a60205260409020805463ffffffff8416908110610ff457610ff4612d3b565b60009182526020918290206040805180820190915291015463ffffffff8116825264010000000090047bffffffffffffffffffffffffffffffffffffffffffffffffffffffff16918101919091529392505050565b611051611aa4565b73ffffffffffffffffffffffffffffffffffffffff81166110f4576040517f08c379a000000000000000000000000000000000000000000000000000000000815260206004820152602660248201527f4f776e61626c653a206e6577206f776e657220697320746865207a65726f206160448201527f646472657373000000000000000000000000000000000000000000000000000060648201526084016106df565b6107da81611b25565b60006107178284612d28565b60006107178284612d6a565b73ffffffffffffffffffffffffffffffffffffffff83166111b7576040517f08c379a0000000000000000000000000000000000000000000000000000000008152602060048201526024808201527f45524332303a20617070726f76652066726f6d20746865207a65726f2061646460448201527f726573730000000000000000000000000000000000000000000000000000000060648201526084016106df565b73ffffffffffffffffffffffffffffffffffffffff821661125a576040517f08c379a000000000000000000000000000000000000000000000000000000000815260206004820152602260248201527f45524332303a20617070726f766520746f20746865207a65726f20616464726560448201527f737300000000000000000000000000000000000000000000000000000000000060648201526084016106df565b73ffffffffffffffffffffffffffffffffffffffff83811660008181526001602090815260408083209487168084529482529182902085905590518481527f8c5be1e5ebec7d5bd14f71427d1e84f3dd0314c0f7b2291e5b200ac8c7c3b925910160405180910390a3505050565b73ffffffffffffffffffffffffffffffffffffffff8381166000908152600160209081526040808320938616835292905220547fffffffffffffffffffffffffffffffffffffffffffffffffffffffffffffffff8114611399578181101561138c576040517f08c379a000000000000000000000000000000000000000000000000000000000815260206004820152601d60248201527f45524332303a20696e73756666696369656e7420616c6c6f77616e636500000060448201526064016106df565b6113998484848403611115565b50505050565b73ffffffffffffffffffffffffffffffffffffffff8316611442576040517f08c379a000000000000000000000000000000000000000000000000000000000815260206004820152602560248201527f45524332303a207472616e736665722066726f6d20746865207a65726f20616460448201527f647265737300000000000000000000000000000000000000000000000000000060648201526084016106df565b73ffffffffffffffffffffffffffffffffffffffff82166114e5576040517f08c379a000000000000000000000000000000000000000000000000000000000815260206004820152602360248201527f45524332303a207472616e7366657220746f20746865207a65726f206164647260448201527f657373000000000000000000000000000000000000000000000000000000000060648201526084016106df565b600c5473ffffffffffffffffffffffffffffffffffffffff1632146116f357600c5474010000000000000000000000000000000000000000900460ff16611588576040517f08c379a000000000000000000000000000000000000000000000000000000000815260206004820152601560248201527f54726164696e67206973206e6f7420616374697665000000000000000000000060448201526064016106df565b60006115a160646be04ee0ccb27ac646ac000000612dac565b9050600d5460036115b29190612d28565b431080156115db5750600e5473ffffffffffffffffffffffffffffffffffffffff848116911614155b1561161657620f42405a10156115f357506000611616565b507fffffffffffffffffffffffffffffffffffffffffffffffffffffffffffffffff5b600d5461162490601e612d28565b4310801561164d5750600e5473ffffffffffffffffffffffffffffffffffffffff848116911614155b156116f1578061167f8473ffffffffffffffffffffffffffffffffffffffff1660009081526020819052604090205490565b6116899084612d28565b11156116f1576040517f08c379a000000000000000000000000000000000000000000000000000000000815260206004820152601360248201527f4d61782077616c6c65742065786365656465640000000000000000000000000060448201526064016106df565b505b6116fe838383611d84565b505050565b60003073ffffffffffffffffffffffffffffffffffffffff7f00000000000000000000000000000000000000000000000000000000000000001614801561176957507f000000000000000000000000000000000000000000000000000000000000000046145b1561179357507f000000000000000000000000000000000000000000000000000000000000000090565b610618604080517f8b73c3c69bb8fe3d512ecc4cf759cc79239f7b179b0ffacaa9a75d522b39400f60208201527f0000000000000000000000000000000000000000000000000000000000000000918101919091527f000000000000000000000000000000000000000000000000000000000000000060608201524660808201523060a082015260009060c00160405160208183030381529060405280519060200120905090565b81546000908181600581111561189557600061185684611ff9565b6118609085612d6a565b600088815260209020909150869082015463ffffffff16111561188557809150611893565b611890816001612d28565b92505b505b808210156118e25760006118a983836120e1565b600088815260209020909150869082015463ffffffff1611156118ce578091506118dc565b6118d9816001612d28565b92505b50611895565b80156119415760008681526020902081017fffffffffffffffffffffffffffffffffffffffffffffffffffffffffffffffff015464010000000090047bffffffffffffffffffffffffffffffffffffffffffffffffffffffff16611944565b60005b7bffffffffffffffffffffffffffffffffffffffffffffffffffffffff169695505050505050565b73ffffffffffffffffffffffffffffffffffffffff8281166000818152600960208181526040808420805485845282862054949093528787167fffffffffffffffffffffffff00000000000000000000000000000000000000008416811790915590519190951694919391928592917f3134e8a2e6d97e929a7e54011ea5485d7d196dd5f0ba4d4ef95803e8e3fc257f9190a46113998284836120fc565b600063ffffffff821115611aa0576040517f08c379a000000000000000000000000000000000000000000000000000000000815260206004820152602660248201527f53616665436173743a2076616c756520646f65736e27742066697420696e203360448201527f322062697473000000000000000000000000000000000000000000000000000060648201526084016106df565b5090565b600c5473ffffffffffffffffffffffffffffffffffffffff16331461081e576040517f08c379a000000000000000000000000000000000000000000000000000000000815260206004820181905260248201527f4f776e61626c653a2063616c6c6572206973206e6f7420746865206f776e657260448201526064016106df565b600c805473ffffffffffffffffffffffffffffffffffffffff8381167fffffffffffffffffffffffff0000000000000000000000000000000000000000831681179093556040519116919082907f8be0079c531659141344cd1fd0a4f28419497f9722a3daafe3b4186f6b6457e090600090a35050565b606060ff8314611bb657611baf836122a1565b90506105e4565b818054611bc290612cac565b80601f0160208091040260200160405190810160405280929190818152602001828054611bee90612cac565b8015611c3b5780601f10611c1057610100808354040283529160200191611c3b565b820191906000526020600020905b815481529060010190602001808311611c1e57829003601f168201915b505050505090506105e4565b600065ffffffffffff821115611aa0576040517f08c379a000000000000000000000000000000000000000000000000000000000815260206004820152602660248201527f53616665436173743a2076616c756520646f65736e27742066697420696e203460448201527f382062697473000000000000000000000000000000000000000000000000000060648201526084016106df565b60006105e4611cec611703565b836040517f19010000000000000000000000000000000000000000000000000000000000008152600281019290925260228201526042902090565b6000806000611d38878787876122e0565b91509150611d45816123cf565b5095945050505050565b73ffffffffffffffffffffffffffffffffffffffff811660009081526007602052604090208054600181018255905b50919050565b73ffffffffffffffffffffffffffffffffffffffff8316611e27576040517f08c379a000000000000000000000000000000000000000000000000000000000815260206004820152602560248201527f45524332303a207472616e736665722066726f6d20746865207a65726f20616460448201527f647265737300000000000000000000000000000000000000000000000000000060648201526084016106df565b73ffffffffffffffffffffffffffffffffffffffff8216611eca576040517f08c379a000000000000000000000000000000000000000000000000000000000815260206004820152602360248201527f45524332303a207472616e7366657220746f20746865207a65726f206164647260448201527f657373000000000000000000000000000000000000000000000000000000000060648201526084016106df565b73ffffffffffffffffffffffffffffffffffffffff831660009081526020819052604090205481811015611f80576040517f08c379a000000000000000000000000000000000000000000000000000000000815260206004820152602660248201527f45524332303a207472616e7366657220616d6f756e742065786365656473206260448201527f616c616e6365000000000000000000000000000000000000000000000000000060648201526084016106df565b73ffffffffffffffffffffffffffffffffffffffff848116600081815260208181526040808320878703905593871680835291849020805487019055925185815290927fddf252ad1be2c89b69c2b068fc378daa952ba7f163c4a11628f55a4df523b3ef910160405180910390a3611399848484612582565b60008160000361200b57506000919050565b600060016120188461258d565b901c6001901b9050600181848161203157612031612d7d565b048201901c9050600181848161204957612049612d7d565b048201901c9050600181848161206157612061612d7d565b048201901c9050600181848161207957612079612d7d565b048201901c9050600181848161209157612091612d7d565b048201901c905060018184816120a9576120a9612d7d565b048201901c905060018184816120c1576120c1612d7d565b048201901c9050610717818285816120db576120db612d7d565b04612621565b60006120f06002848418612dac565b61071790848416612d28565b8173ffffffffffffffffffffffffffffffffffffffff168373ffffffffffffffffffffffffffffffffffffffff16141580156121385750600081115b156116fe5773ffffffffffffffffffffffffffffffffffffffff8316156121ed5773ffffffffffffffffffffffffffffffffffffffff83166000908152600a60205260408120819061218d9061110985612637565b915091508473ffffffffffffffffffffffffffffffffffffffff167fdec2bacdd2f05b59de34da9b523dff8be42e5e38e818c82fdb0bae774387a72483836040516121e2929190918252602082015260400190565b60405180910390a250505b73ffffffffffffffffffffffffffffffffffffffff8216156116fe5773ffffffffffffffffffffffffffffffffffffffff82166000908152600a60205260408120819061223d906110fd85612637565b915091508373ffffffffffffffffffffffffffffffffffffffff167fdec2bacdd2f05b59de34da9b523dff8be42e5e38e818c82fdb0bae774387a7248383604051612292929190918252602082015260400190565b60405180910390a25050505050565b606060006122ae8361283c565b604080516020808252818301909252919250600091906020820181803683375050509182525060208101929092525090565b6000807f7fffffffffffffffffffffffffffffff5d576e7357a4501ddfe92f46681b20a083111561231757506000905060036123c6565b6040805160008082526020820180845289905260ff881692820192909252606081018690526080810185905260019060a0016020604051602081039080840390855afa15801561236b573d6000803e3d6000fd5b50506040517fffffffffffffffffffffffffffffffffffffffffffffffffffffffffffffffe0015191505073ffffffffffffffffffffffffffffffffffffffff81166123bf576000600192509250506123c6565b9150600090505b94509492505050565b60008160048111156123e3576123e3612de7565b036123eb5750565b60018160048111156123ff576123ff612de7565b03612466576040517f08c379a000000000000000000000000000000000000000000000000000000000815260206004820152601860248201527f45434453413a20696e76616c6964207369676e6174757265000000000000000060448201526064016106df565b600281600481111561247a5761247a612de7565b036124e1576040517f08c379a000000000000000000000000000000000000000000000000000000000815260206004820152601f60248201527f45434453413a20696e76616c6964207369676e6174757265206c656e6774680060448201526064016106df565b60038160048111156124f5576124f5612de7565b036107da576040517f08c379a000000000000000000000000000000000000000000000000000000000815260206004820152602260248201527f45434453413a20696e76616c6964207369676e6174757265202773272076616c60448201527f756500000000000000000000000000000000000000000000000000000000000060648201526084016106df565b6116fe83838361287d565b600080608083901c156125a257608092831c92015b604083901c156125b457604092831c92015b602083901c156125c657602092831c92015b601083901c156125d857601092831c92015b600883901c156125ea57600892831c92015b600483901c156125fc57600492831c92015b600283901c1561260e57600292831c92015b600183901c156105e45760010192915050565b60008183106126305781610717565b5090919050565b825460009081908181156126b75760008781526020902082017fffffffffffffffffffffffffffffffffffffffffffffffffffffffffffffffff0160408051808201909152905463ffffffff8116825264010000000090047bffffffffffffffffffffffffffffffffffffffffffffffffffffffff1660208201526126cc565b60408051808201909152600080825260208201525b905080602001517bffffffffffffffffffffffffffffffffffffffffffffffffffffffff16935061270184868863ffffffff16565b925060008211801561272b5750612716610a41565b65ffffffffffff16816000015163ffffffff16145b156127a357612739836128bc565b60008881526020902083017fffffffffffffffffffffffffffffffffffffffffffffffffffffffffffffffff0180547bffffffffffffffffffffffffffffffffffffffffffffffffffffffff929092166401000000000263ffffffff909216919091179055612832565b8660405180604001604052806127c76127ba610a41565b65ffffffffffff16611a0a565b63ffffffff1681526020016127db866128bc565b7bffffffffffffffffffffffffffffffffffffffffffffffffffffffff90811690915282546001810184556000938452602093849020835194909301519091166401000000000263ffffffff909316929092179101555b5050935093915050565b600060ff8216601f8111156105e4576040517fb3512b0c00000000000000000000000000000000000000000000000000000000815260040160405180910390fd5b73ffffffffffffffffffffffffffffffffffffffff8381166000908152600960205260408082205485841683529120546116fe929182169116836120fc565b60007bffffffffffffffffffffffffffffffffffffffffffffffffffffffff821115611aa0576040517f08c379a000000000000000000000000000000000000000000000000000000000815260206004820152602760248201527f53616665436173743a2076616c756520646f65736e27742066697420696e203260448201527f323420626974730000000000000000000000000000000000000000000000000060648201526084016106df565b6000815180845260005b8181101561299057602081850181015186830182015201612974565b5060006020828601015260207fffffffffffffffffffffffffffffffffffffffffffffffffffffffffffffffe0601f83011685010191505092915050565b602081526000610717602083018461296a565b803573ffffffffffffffffffffffffffffffffffffffff81168114612a0557600080fd5b919050565b60008060408385031215612a1d57600080fd5b612a26836129e1565b946020939093013593505050565b600080600060608486031215612a4957600080fd5b612a52846129e1565b9250612a60602085016129e1565b9150604084013590509250925092565b600060208284031215612a8257600080fd5b610717826129e1565b7fff00000000000000000000000000000000000000000000000000000000000000881681526000602060e06020840152612ac860e084018a61296a565b8381036040850152612ada818a61296a565b6060850189905273ffffffffffffffffffffffffffffffffffffffff8816608086015260a0850187905284810360c08601528551808252602080880193509091019060005b81811015612b3b57835183529284019291840191600101612b1f565b50909c9b505050505050505050505050565b600060208284031215612b5f57600080fd5b5035919050565b803560ff81168114612a0557600080fd5b60008060008060008060c08789031215612b9057600080fd5b612b99876129e1565b95506020870135945060408701359350612bb560608801612b66565b92506080870135915060a087013590509295509295509295565b600080600080600080600060e0888a031215612bea57600080fd5b612bf3886129e1565b9650612c01602089016129e1565b95506040880135945060608801359350612c1d60808901612b66565b925060a0880135915060c0880135905092959891949750929550565b60008060408385031215612c4c57600080fd5b612c55836129e1565b9150612c63602084016129e1565b90509250929050565b60008060408385031215612c7f57600080fd5b612c88836129e1565b9150602083013563ffffffff81168114612ca157600080fd5b809150509250929050565b600181811c90821680612cc057607f821691505b602082108103611d7e577f4e487b7100000000000000000000000000000000000000000000000000000000600052602260045260246000fd5b7f4e487b7100000000000000000000000000000000000000000000000000000000600052601160045260246000fd5b808201808211156105e4576105e4612cf9565b7f4e487b7100000000000000000000000000000000000000000000000000000000600052603260045260246000fd5b818103818111156105e4576105e4612cf9565b7f4e487b7100000000000000000000000000000000000000000000000000000000600052601260045260246000fd5b600082612de2577f4e487b7100000000000000000000000000000000000000000000000000000000600052601260045260246000fd5b500490565b7f4e487b7100000000000000000000000000000000000000000000000000000000600052602160045260246000fdfea26469706673582212209fed8570b548dd35e984b9ed79d0ed8c0ff97ab6d1a701b2df8c743b6ed357c464736f6c63430008180033dec2bacdd2f05b59de34da9b523dff8be42e5e38e818c82fdb0bae774387a724",
  "linkReferences": {},
  "deployedLinkReferences": {}
}