{
  "_format": "hh-sol-artifact-1",
  "contractName": "GibiStorage",
  "sourceName": "contracts/GibiStorage.sol",
  "abi": [
    {
      "anonymous": false,
      "inputs": [
        {
          "indexed": false,
          "internalType": "uint8",
          "name": "version",
          "type": "uint8"
        }
      ],
      "name": "Initialized",
      "type": "event"
    },
    {
      "anonymous": false,
      "inputs": [
        {
          "indexed": true,
          "internalType": "address",
          "name": "previousOwner",
          "type": "address"
        },
        {
          "indexed": true,
          "internalType": "address",
          "name": "newOwner",
          "type": "address"
        }
      ],
      "name": "OwnershipTransferred",
      "type": "event"
    },
    {
      "anonymous": false,
      "inputs": [
        {
          "indexed": true,
          "internalType": "address",
          "name": "user",
          "type": "address"
        },
        {
          "indexed": true,
          "internalType": "address",
          "name": "nftTokenAddress",
          "type": "address"
        },
        {
          "indexed": false,
          "internalType": "uint256",
          "name": "tokenId",
          "type": "uint256"
        }
      ],
      "name": "giveAwayCreated",
      "type": "event"
    },
    {
      "anonymous": false,
      "inputs": [
        {
          "indexed": true,
          "internalType": "address",
          "name": "winner",
          "type": "address"
        },
        {
          "indexed": true,
          "internalType": "address",
          "name": "nftTokenAddress",
          "type": "address"
        },
        {
          "indexed": false,
          "internalType": "uint256",
          "name": "tokenId",
          "type": "uint256"
        }
      ],
      "name": "winnerNFTTransfer",
      "type": "event"
    },
    {
      "inputs": [],
      "name": "_coneAddress",
      "outputs": [
        {
          "internalType": "address",
          "name": "",
          "type": "address"
        }
      ],
      "stateMutability": "view",
      "type": "function"
    },
    {
      "inputs": [
        {
          "internalType": "address",
          "name": "nftTokenAddress",
          "type": "address"
        },
        {
          "internalType": "uint256",
          "name": "tokenId",
          "type": "uint256"
        },
        {
          "internalType": "bool",
          "name": "isERC1155",
          "type": "bool"
        },
        {
          "internalType": "bool",
          "name": "isERC20",
          "type": "bool"
        },
        {
          "internalType": "uint256",
          "name": "amount",
          "type": "uint256"
        }
      ],
      "name": "createGiveaway",
      "outputs": [],
      "stateMutability": "nonpayable",
      "type": "function"
    },
    {
      "inputs": [
        {
          "internalType": "address",
          "name": "user",
          "type": "address"
        }
      ],
      "name": "getUserGiveaways",
      "outputs": [
        {
          "components": [
            {
              "internalType": "address",
              "name": "nftTokenAddress",
              "type": "address"
            },
            {
              "internalType": "uint256",
              "name": "tokenId",
              "type": "uint256"
            },
            {
              "internalType": "bool",
              "name": "ended",
              "type": "bool"
            }
          ],
          "internalType": "struct GibiStorage.Giveaway[]",
          "name": "",
          "type": "tuple[]"
        }
      ],
      "stateMutability": "view",
      "type": "function"
    },
    {
      "inputs": [
        {
          "internalType": "address",
          "name": "_manager",
          "type": "address"
        }
      ],
      "name": "initialize",
      "outputs": [],
      "stateMutability": "nonpayable",
      "type": "function"
    },
    {
      "inputs": [],
      "name": "manager",
      "outputs": [
        {
          "internalType": "address",
          "name": "",
          "type": "address"
        }
      ],
      "stateMutability": "view",
      "type": "function"
    },
    {
      "inputs": [
        {
          "internalType": "address",
          "name": "",
          "type": "address"
        },
        {
          "internalType": "address",
          "name": "",
          "type": "address"
        },
        {
          "internalType": "uint256[]",
          "name": "",
          "type": "uint256[]"
        },
        {
          "internalType": "uint256[]",
          "name": "",
          "type": "uint256[]"
        },
        {
          "internalType": "bytes",
          "name": "",
          "type": "bytes"
        }
      ],
      "name": "onERC1155BatchReceived",
      "outputs": [
        {
          "internalType": "bytes4",
          "name": "",
          "type": "bytes4"
        }
      ],
      "stateMutability": "nonpayable",
      "type": "function"
    },
    {
      "inputs": [
        {
          "internalType": "address",
          "name": "",
          "type": "address"
        },
        {
          "internalType": "address",
          "name": "",
          "type": "address"
        },
        {
          "internalType": "uint256",
          "name": "",
          "type": "uint256"
        },
        {
          "internalType": "uint256",
          "name": "",
          "type": "uint256"
        },
        {
          "internalType": "bytes",
          "name": "",
          "type": "bytes"
        }
      ],
      "name": "onERC1155Received",
      "outputs": [
        {
          "internalType": "bytes4",
          "name": "",
          "type": "bytes4"
        }
      ],
      "stateMutability": "nonpayable",
      "type": "function"
    },
    {
      "inputs": [
        {
          "internalType": "address",
          "name": "token",
          "type": "address"
        },
        {
          "internalType": "address[]",
          "name": "recipients",
          "type": "address[]"
        },
        {
          "internalType": "uint256[]",
          "name": "amounts",
          "type": "uint256[]"
        }
      ],
      "name": "distribute",
      "outputs": [],
      "stateMutability": "nonpayable",
      "type": "function"
    },
    {
      "inputs": [
        {
          "internalType": "address",
          "name": "",
          "type": "address"
        },
        {
          "internalType": "address",
          "name": "",
          "type": "address"
        },
        {
          "internalType": "uint256",
          "name": "",
          "type": "uint256"
        },
        {
          "internalType": "bytes",
          "name": "",
          "type": "bytes"
        }
      ],
      "name": "onERC721Received",
      "outputs": [
        {
          "internalType": "bytes4",
          "name": "",
          "type": "bytes4"
        }
      ],
      "stateMutability": "pure",
      "type": "function"
    },
    {
      "inputs": [],
      "name": "owner",
      "outputs": [
        {
          "internalType": "address",
          "name": "",
          "type": "address"
        }
      ],
      "stateMutability": "view",
      "type": "function"
    },
    {
      "inputs": [],
      "name": "renounceOwnership",
      "outputs": [],
      "stateMutability": "nonpayable",
      "type": "function"
    },
    {
      "inputs": [],
      "name": "retrieveNFT",
      "outputs": [],
      "stateMutability": "nonpayable",
      "type": "function"
    },
    {
      "inputs": [
        {
          "internalType": "address",
          "name": "coneAddress",
          "type": "address"
        }
      ],
      "name": "setConeAddress",
      "outputs": [],
      "stateMutability": "nonpayable",
      "type": "function"
    },
    {
      "inputs": [
        {
          "internalType": "address",
          "name": "_manager",
          "type": "address"
        }
      ],
      "name": "setManager",
      "outputs": [],
      "stateMutability": "nonpayable",
      "type": "function"
    },
    {
      "inputs": [
        {
          "internalType": "bytes4",
          "name": "interfaceId",
          "type": "bytes4"
        }
      ],
      "name": "supportsInterface",
      "outputs": [
        {
          "internalType": "bool",
          "name": "",
          "type": "bool"
        }
      ],
      "stateMutability": "view",
      "type": "function"
    },
    {
      "inputs": [
        {
          "internalType": "address",
          "name": "newOwner",
          "type": "address"
        }
      ],
      "name": "transferOwnership",
      "outputs": [],
      "stateMutability": "nonpayable",
      "type": "function"
    },
    {
      "inputs": [
        {
          "internalType": "address",
          "name": "winner",
          "type": "address"
        },
        {
          "internalType": "address",
          "name": "nftTokenAddress",
          "type": "address"
        },
        {
          "internalType": "address",
          "name": "creatorAddress",
          "type": "address"
        },
        {
          "internalType": "uint256",
          "name": "tokenId",
          "type": "uint256"
        },
        {
          "internalType": "bool",
          "name": "isERC1155",
          "type": "bool"
        }
      ],
      "name": "transferWinnerERC20",
      "outputs": [],
      "stateMutability": "nonpayable",
      "type": "function"
    },
    {
      "inputs": [
        {
          "internalType": "address",
          "name": "winner",
          "type": "address"
        },
        {
          "internalType": "address",
          "name": "nftTokenAddress",
          "type": "address"
        },
        {
          "internalType": "address",
          "name": "creatorAddress",
          "type": "address"
        },
        {
          "internalType": "uint256",
          "name": "tokenId",
          "type": "uint256"
        },
        {
          "internalType": "bool",
          "name": "isERC1155",
          "type": "bool"
        },
        {
          "internalType": "bool",
          "name": "isERC20",
          "type": "bool"
        },
        {
          "internalType": "uint256",
          "name": "amount",
          "type": "uint256"
        }
      ],
      "name": "transferWinnerNFT",
      "outputs": [],
      "stateMutability": "nonpayable",
      "type": "function"
    },
    {
      "inputs": [
        {
          "internalType": "address",
          "name": "",
          "type": "address"
        },
        {
          "internalType": "uint256",
          "name": "",
          "type": "uint256"
        }
      ],
      "name": "userGiveaways",
      "outputs": [
        {
          "internalType": "address",
          "name": "nftTokenAddress",
          "type": "address"
        },
        {
          "internalType": "uint256",
          "name": "tokenId",
          "type": "uint256"
        },
        {
          "internalType": "bool",
          "name": "ended",
          "type": "bool"
        }
      ],
      "stateMutability": "view",
      "type": "function"
    }
  ],
  "bytecode": "0x608060405234801561001057600080fd5b5061174f806100206000396000f3fe608060405234801561001057600080fd5b50600436106101365760003560e01c8063715018a6116100b2578063c4d66de811610081578063e6c0336e11610066578063e6c0336e14610306578063f23a6e6114610319578063f2fde38b1461035157600080fd5b8063c4d66de8146102e0578063d0ebdbe7146102f357600080fd5b8063715018a61461027c5780637de57079146102845780638da5cb5b14610297578063bc197c81146102a857600080fd5b80632fb2148211610109578063481c6a75116100ee578063481c6a751461024157806355d723ec14610254578063610bb7351461027457600080fd5b80632fb21482146101f45780633b674f831461020757600080fd5b806301ffc9a71461013b578063060f7d6e14610163578063128a541914610178578063150b7a02146101a3575b600080fd5b61014e6101493660046111a1565b610364565b60405190151581526020015b60405180910390f35b6101766101713660046111fc565b6103cd565b005b60675461018b906001600160a01b031681565b6040516001600160a01b03909116815260200161015a565b6101db6101b136600461127a565b7f150b7a020000000000000000000000000000000000000000000000000000000095945050505050565b6040516001600160e01b0319909116815260200161015a565b610176610202366004611315565b6107ba565b61021a610215366004611377565b610b1d565b604080516001600160a01b039094168452602084019290925215159082015260600161015a565b60665461018b906001600160a01b031681565b6102676102623660046113a1565b610b6c565b60405161015a91906113bc565b610176610c09565b610176610c13565b610176610292366004611420565b610c25565b6033546001600160a01b031661018b565b6101db6102b63660046115b0565b7fbc197c810000000000000000000000000000000000000000000000000000000095945050505050565b6101766102ee3660046113a1565b610e4f565b6101766103013660046113a1565b610f8b565b6101766103143660046113a1565b610fb5565b6101db61032736600461165a565b7ff23a6e610000000000000000000000000000000000000000000000000000000095945050505050565b61017661035f3660046113a1565b610fdf565b60006001600160e01b031982167f4e2312e00000000000000000000000000000000000000000000000000000000014806103c757507f01ffc9a7000000000000000000000000000000000000000000000000000000006001600160e01b03198316145b92915050565b6066546001600160a01b031633146104385760405162461bcd60e51b815260206004820152602360248201527f4f6e6c79206d616e616765722063616e2063616c6c20746869732066756e637460448201526234b7b760e91b60648201526084015b60405180910390fd5b82156104c457604051637921219560e11b81523060048201526001600160a01b038881166024830152604482018690526001606483015260a06084830152600060a483015287919082169063f242432a9060c401600060405180830381600087803b1580156104a657600080fd5b505af11580156104ba573d6000803e3d6000fd5b50505050506105b4565b81156105475760405163a9059cbb60e01b81526001600160a01b0388811660048301526024820183905287919082169063a9059cbb906044016020604051808303816000875af115801561051c573d6000803e3d6000fd5b505050506040513d601f19601f8201168201806040525081019061054091906116bf565b50506105b4565b6040516323b872dd60e01b81523060048201526001600160a01b038881166024830152604482018690528791908216906323b872dd90606401600060405180830381600087803b15801561059a57600080fd5b505af11580156105ae573d6000803e3d6000fd5b50505050505b60005b6001600160a01b0386166000908152606560205260409020548110156106d5576001600160a01b03868116600090815260656020526040902080549189169183908110610606576106066116dc565b60009182526020909120600390910201546001600160a01b031614801561066957506001600160a01b0386166000908152606560205260409020805486919083908110610655576106556116dc565b906000526020600020906003020160010154145b156106c3576001600160a01b03861660009081526065602052604090208054600191908390811061069c5761069c6116dc565b60009182526020909120600390910201600201805460ff19169115159190911790556106d5565b806106cd816116f2565b9150506105b7565b5060405163a9059cbb60e01b815233600482015269021e19e0c9bab2400000602482015273ba777ae3a3c91fcd83ef85bfe65410592bdd0f7c9063a9059cbb906044016020604051808303816000875af1158015610737573d6000803e3d6000fd5b505050506040513d601f19601f8201168201806040525081019061075b91906116bf565b61076457600080fd5b856001600160a01b0316876001600160a01b03167fe4e9a09d2571b5a7e642a0df862bb16130075847155c62df99252066ed02087d866040516107a991815260200190565b60405180910390a350505050505050565b6066546001600160a01b031633146108205760405162461bcd60e51b815260206004820152602360248201527f4f6e6c79206d616e616765722063616e2063616c6c20746869732066756e637460448201526234b7b760e91b606482015260840161042f565b80156108ac57604051637921219560e11b81523060048201526001600160a01b038681166024830152604482018490526001606483015260a06084830152600060a483015285919082169063f242432a9060c401600060405180830381600087803b15801561088e57600080fd5b505af11580156108a2573d6000803e3d6000fd5b5050505050610919565b6040516323b872dd60e01b81523060048201526001600160a01b038681166024830152604482018490528591908216906323b872dd90606401600060405180830381600087803b1580156108ff57600080fd5b505af1158015610913573d6000803e3d6000fd5b50505050505b60005b6001600160a01b038416600090815260656020526040902054811015610a3a576001600160a01b0384811660009081526065602052604090208054918716918390811061096b5761096b6116dc565b60009182526020909120600390910201546001600160a01b03161480156109ce57506001600160a01b03841660009081526065602052604090208054849190839081106109ba576109ba6116dc565b906000526020600020906003020160010154145b15610a28576001600160a01b038416600090815260656020526040902080546001919083908110610a0157610a016116dc565b60009182526020909120600390910201600201805460ff1916911515919091179055610a3a565b80610a32816116f2565b91505061091c565b5060405163a9059cbb60e01b815233600482015269021e19e0c9bab2400000602482015273ba777ae3a3c91fcd83ef85bfe65410592bdd0f7c9063a9059cbb906044016020604051808303816000875af1158015610a9c573d6000803e3d6000fd5b505050506040513d601f19601f82011682018060405250810190610ac091906116bf565b610ac957600080fd5b836001600160a01b0316856001600160a01b03167fe4e9a09d2571b5a7e642a0df862bb16130075847155c62df99252066ed02087d84604051610b0e91815260200190565b60405180910390a35050505050565b60656020528160005260406000208181548110610b3957600080fd5b60009182526020909120600390910201805460018201546002909201546001600160a01b03909116935090915060ff1683565b6001600160a01b0381166000908152606560209081526040808320805482518185028101850190935280835260609492939192909184015b82821015610bfe576000848152602090819020604080516060810182526003860290920180546001600160a01b031683526001808201548486015260029091015460ff161515918301919091529083529092019101610ba4565b505050509050919050565b610c1161106f565b565b610c1b61106f565b610c1160006110c9565b8215610cae57604051637921219560e11b8152336004820152306024820152604481018590526001606482015260a06084820152600060a482015285906001600160a01b0382169063f242432a9060c401600060405180830381600087803b158015610c9057600080fd5b505af1158015610ca4573d6000803e3d6000fd5b5050505050610d9e565b8115610d34576040516323b872dd60e01b81523360048201523060248201526044810182905285906001600160a01b038216906323b872dd906064016020604051808303816000875af1158015610d09573d6000803e3d6000fd5b505050506040513d601f19601f82011682018060405250810190610d2d91906116bf565b5050610d9e565b6040516323b872dd60e01b81523360048201523060248201526044810185905285906001600160a01b038216906323b872dd90606401600060405180830381600087803b158015610d8457600080fd5b505af1158015610d98573d6000803e3d6000fd5b50505050505b33600081815260656020908152604080832081516060810183526001600160a01b038b81168083528286018c8152838601888152855460018082018855968a52988890209451600390990290940180546001600160a01b03191698909316979097178255955192810192909255516002909101805460ff1916911515919091179055518781529192917f2cbc28b82cdff5f04b8f88226fe559928dae68690e383e20b7ebe367cd08d13f9101610b0e565b600054610100900460ff1615808015610e6f5750600054600160ff909116105b80610e895750303b158015610e89575060005460ff166001145b610efb5760405162461bcd60e51b815260206004820152602e60248201527f496e697469616c697a61626c653a20636f6e747261637420697320616c72656160448201527f647920696e697469616c697a6564000000000000000000000000000000000000606482015260840161042f565b6000805460ff191660011790558015610f1e576000805461ff0019166101001790555b610f2661111b565b606680546001600160a01b0319166001600160a01b0384161790558015610f87576000805461ff0019169055604051600181527f7f26b83ff96e1f2b6a682f133852f6798a09c465da95921460cefb38474024989060200160405180910390a15b5050565b610f9361106f565b606680546001600160a01b0319166001600160a01b0392909216919091179055565b610fbd61106f565b606780546001600160a01b0319166001600160a01b0392909216919091179055565b610fe761106f565b6001600160a01b0381166110635760405162461bcd60e51b815260206004820152602660248201527f4f776e61626c653a206e6577206f776e657220697320746865207a65726f206160448201527f6464726573730000000000000000000000000000000000000000000000000000606482015260840161042f565b61106c816110c9565b50565b6033546001600160a01b03163314610c115760405162461bcd60e51b815260206004820181905260248201527f4f776e61626c653a2063616c6c6572206973206e6f7420746865206f776e6572604482015260640161042f565b603380546001600160a01b038381166001600160a01b0319831681179093556040519116919082907f8be0079c531659141344cd1fd0a4f28419497f9722a3daafe3b4186f6b6457e090600090a35050565b600054610100900460ff166111985760405162461bcd60e51b815260206004820152602b60248201527f496e697469616c697a61626c653a20636f6e7472616374206973206e6f74206960448201527f6e697469616c697a696e67000000000000000000000000000000000000000000606482015260840161042f565b610c11336110c9565b6000602082840312156111b357600080fd5b81356001600160e01b0319811681146111cb57600080fd5b9392505050565b80356001600160a01b03811681146111e957600080fd5b919050565b801515811461106c57600080fd5b600080600080600080600060e0888a03121561121757600080fd5b611220886111d2565b965061122e602089016111d2565b955061123c604089016111d2565b9450606088013593506080880135611253816111ee565b925060a0880135611263816111ee565b8092505060c0880135905092959891949750929550565b60008060008060006080868803121561129257600080fd5b61129b866111d2565b94506112a9602087016111d2565b935060408601359250606086013567ffffffffffffffff808211156112cd57600080fd5b818801915088601f8301126112e157600080fd5b8135818111156112f057600080fd5b89602082850101111561130257600080fd5b9699959850939650602001949392505050565b600080600080600060a0868803121561132d57600080fd5b611336866111d2565b9450611344602087016111d2565b9350611352604087016111d2565b9250606086013591506080860135611369816111ee565b809150509295509295909350565b6000806040838503121561138a57600080fd5b611393836111d2565b946020939093013593505050565b6000602082840312156113b357600080fd5b6111cb826111d2565b602080825282518282018190526000919060409081850190868401855b8281101561141357815180516001600160a01b031685528681015187860152850151151585850152606090930192908501906001016113d9565b5091979650505050505050565b600080600080600060a0868803121561143857600080fd5b611441866111d2565b9450602086013593506040860135611458816111ee565b92506060860135611468816111ee565b949793965091946080013592915050565b634e487b7160e01b600052604160045260246000fd5b604051601f8201601f1916810167ffffffffffffffff811182821017156114b8576114b8611479565b604052919050565b600082601f8301126114d157600080fd5b8135602067ffffffffffffffff8211156114ed576114ed611479565b8160051b6114fc82820161148f565b928352848101820192828101908785111561151657600080fd5b83870192505b848310156115355782358252918301919083019061151c565b979650505050505050565b600082601f83011261155157600080fd5b813567ffffffffffffffff81111561156b5761156b611479565b61157e601f8201601f191660200161148f565b81815284602083860101111561159357600080fd5b816020850160208301376000918101602001919091529392505050565b600080600080600060a086880312156115c857600080fd5b6115d1866111d2565b94506115df602087016111d2565b9350604086013567ffffffffffffffff808211156115fc57600080fd5b61160889838a016114c0565b9450606088013591508082111561161e57600080fd5b61162a89838a016114c0565b9350608088013591508082111561164057600080fd5b5061164d88828901611540565b9150509295509295909350565b600080600080600060a0868803121561167257600080fd5b61167b866111d2565b9450611689602087016111d2565b93506040860135925060608601359150608086013567ffffffffffffffff8111156116b357600080fd5b61164d88828901611540565b6000602082840312156116d157600080fd5b81516111cb816111ee565b634e487b7160e01b600052603260045260246000fd5b60006001820161171257634e487b7160e01b600052601160045260246000fd5b506001019056fea264697066735822122010ced5e2538b5069c035286ed67f71811e3089acecfc46ab16d27ba0ffa403ee64736f6c63430008110033",
  "linkReferences": {},
  "deployedLinkReferences": {}
}