{
  "_format": "hh-sol-artifact-1",
  "contractName": "GibiStorage",
  "sourceName": "contracts/GibiStorage.sol",
  "abi": [
    {
      "anonymous": false,
      "inputs": [
        {
          "indexed": false,
          "internalType": "uint8",
          "name": "version",
          "type": "uint8"
        }
      ],
      "name": "Initialized",
      "type": "event"
    },
    {
      "anonymous": false,
      "inputs": [
        {
          "indexed": true,
          "internalType": "address",
          "name": "previousOwner",
          "type": "address"
        },
        {
          "indexed": true,
          "internalType": "address",
          "name": "newOwner",
          "type": "address"
        }
      ],
      "name": "OwnershipTransferred",
      "type": "event"
    },
    {
      "anonymous": false,
      "inputs": [
        {
          "indexed": true,
          "internalType": "address",
          "name": "user",
          "type": "address"
        },
        {
          "indexed": true,
          "internalType": "address",
          "name": "nftTokenAddress",
          "type": "address"
        },
        {
          "indexed": false,
          "internalType": "uint256",
          "name": "tokenId",
          "type": "uint256"
        }
      ],
      "name": "giveAwayCreated",
      "type": "event"
    },
    {
      "anonymous": false,
      "inputs": [
        {
          "indexed": true,
          "internalType": "address",
          "name": "winner",
          "type": "address"
        },
        {
          "indexed": true,
          "internalType": "address",
          "name": "nftTokenAddress",
          "type": "address"
        },
        {
          "indexed": false,
          "internalType": "uint256",
          "name": "tokenId",
          "type": "uint256"
        }
      ],
      "name": "winnerNFTTransfer",
      "type": "event"
    },
    {
      "inputs": [],
      "name": "_coneAddress",
      "outputs": [
        {
          "internalType": "address",
          "name": "",
          "type": "address"
        }
      ],
      "stateMutability": "view",
      "type": "function"
    },
    {
      "inputs": [
        {
          "internalType": "address",
          "name": "nftTokenAddress",
          "type": "address"
        },
        {
          "internalType": "uint256",
          "name": "tokenId",
          "type": "uint256"
        },
        {
          "internalType": "bool",
          "name": "isERC1155",
          "type": "bool"
        }
      ],
      "name": "createGiveaway",
      "outputs": [],
      "stateMutability": "nonpayable",
      "type": "function"
    },
    {
      "inputs": [
        {
          "internalType": "address",
          "name": "nftTokenAddress",
          "type": "address"
        },
        {
          "internalType": "uint256",
          "name": "tokenId",
          "type": "uint256"
        }
      ],
      "name": "createGiveaway2",
      "outputs": [],
      "stateMutability": "nonpayable",
      "type": "function"
    },
    {
      "inputs": [
        {
          "internalType": "address",
          "name": "user",
          "type": "address"
        }
      ],
      "name": "getUserGiveaways",
      "outputs": [
        {
          "components": [
            {
              "internalType": "address",
              "name": "nftTokenAddress",
              "type": "address"
            },
            {
              "internalType": "uint256",
              "name": "tokenId",
              "type": "uint256"
            },
            {
              "internalType": "bool",
              "name": "ended",
              "type": "bool"
            }
          ],
          "internalType": "struct GibiStorage.Giveaway[]",
          "name": "",
          "type": "tuple[]"
        }
      ],
      "stateMutability": "view",
      "type": "function"
    },
    {
      "inputs": [
        {
          "internalType": "address",
          "name": "_manager",
          "type": "address"
        }
      ],
      "name": "initialize",
      "outputs": [],
      "stateMutability": "nonpayable",
      "type": "function"
    },
    {
      "inputs": [],
      "name": "manager",
      "outputs": [
        {
          "internalType": "address",
          "name": "",
          "type": "address"
        }
      ],
      "stateMutability": "view",
      "type": "function"
    },
    {
      "inputs": [
        {
          "internalType": "address",
          "name": "",
          "type": "address"
        },
        {
          "internalType": "address",
          "name": "",
          "type": "address"
        },
        {
          "internalType": "uint256",
          "name": "",
          "type": "uint256"
        },
        {
          "internalType": "bytes",
          "name": "",
          "type": "bytes"
        }
      ],
      "name": "onERC721Received",
      "outputs": [
        {
          "internalType": "bytes4",
          "name": "",
          "type": "bytes4"
        }
      ],
      "stateMutability": "pure",
      "type": "function"
    },
    {
      "inputs": [],
      "name": "owner",
      "outputs": [
        {
          "internalType": "address",
          "name": "",
          "type": "address"
        }
      ],
      "stateMutability": "view",
      "type": "function"
    },
    {
      "inputs": [],
      "name": "renounceOwnership",
      "outputs": [],
      "stateMutability": "nonpayable",
      "type": "function"
    },
    {
      "inputs": [],
      "name": "retrieveNFT",
      "outputs": [],
      "stateMutability": "nonpayable",
      "type": "function"
    },
    {
      "inputs": [
        {
          "internalType": "address",
          "name": "coneAddress",
          "type": "address"
        }
      ],
      "name": "setConeAddress",
      "outputs": [],
      "stateMutability": "nonpayable",
      "type": "function"
    },
    {
      "inputs": [
        {
          "internalType": "address",
          "name": "_manager",
          "type": "address"
        }
      ],
      "name": "setManager",
      "outputs": [],
      "stateMutability": "nonpayable",
      "type": "function"
    },
    {
      "inputs": [
        {
          "internalType": "address",
          "name": "newOwner",
          "type": "address"
        }
      ],
      "name": "transferOwnership",
      "outputs": [],
      "stateMutability": "nonpayable",
      "type": "function"
    },
    {
      "inputs": [
        {
          "internalType": "address",
          "name": "winner",
          "type": "address"
        },
        {
          "internalType": "address",
          "name": "nftTokenAddress",
          "type": "address"
        },
        {
          "internalType": "address",
          "name": "creatorAddress",
          "type": "address"
        },
        {
          "internalType": "uint256",
          "name": "tokenId",
          "type": "uint256"
        }
      ],
      "name": "transferWinnerNFT",
      "outputs": [],
      "stateMutability": "nonpayable",
      "type": "function"
    },
    {
      "inputs": [
        {
          "internalType": "address",
          "name": "",
          "type": "address"
        },
        {
          "internalType": "uint256",
          "name": "",
          "type": "uint256"
        }
      ],
      "name": "userGiveaways",
      "outputs": [
        {
          "internalType": "address",
          "name": "nftTokenAddress",
          "type": "address"
        },
        {
          "internalType": "uint256",
          "name": "tokenId",
          "type": "uint256"
        },
        {
          "internalType": "bool",
          "name": "ended",
          "type": "bool"
        }
      ],
      "stateMutability": "view",
      "type": "function"
    }
  ],
  "bytecode": "0x608060405234801561001057600080fd5b50610f02806100206000396000f3fe608060405234801561001057600080fd5b50600436106100f55760003560e01c8063610bb73511610097578063c4d66de811610066578063c4d66de81461025c578063d0ebdbe71461026f578063e6c0336e14610282578063f2fde38b1461029557600080fd5b8063610bb73514610228578063715018a6146102305780638da5cb5b14610238578063b77a042b1461024957600080fd5b80633b674f83116100d35780633b674f83146101a8578063481c6a75146101e257806355d723ec146101f5578063562ec6e11461021557600080fd5b8063128a5419146100fa578063150b7a021461012a578063286b51ef14610193575b600080fd5b60675461010d906001600160a01b031681565b6040516001600160a01b0390911681526020015b60405180910390f35b610162610138366004610c8e565b7f150b7a020000000000000000000000000000000000000000000000000000000095945050505050565b6040517fffffffff000000000000000000000000000000000000000000000000000000009091168152602001610121565b6101a66101a1366004610d29565b6102a8565b005b6101bb6101b6366004610d29565b610356565b604080516001600160a01b0390941684526020840192909252151590820152606001610121565b60665461010d906001600160a01b031681565b610208610203366004610d53565b6103a5565b6040516101219190610d75565b6101a6610223366004610dd9565b610442565b6101a6610747565b6101a6610751565b6033546001600160a01b031661010d565b6101a6610257366004610e32565b610763565b6101a661026a366004610d53565b610920565b6101a661027d366004610d53565b610a5c565b6101a6610290366004610d53565b610a86565b6101a66102a3366004610d53565b610ab0565b6040516323b872dd60e01b81523360048201523060248201526044810182905282906001600160a01b038216906323b872dd90606401600060405180830381600087803b1580156102f857600080fd5b505af115801561030c573d6000803e3d6000fd5b50506040518481526001600160a01b03861692503391507f2cbc28b82cdff5f04b8f88226fe559928dae68690e383e20b7ebe367cd08d13f906020015b60405180910390a3505050565b6065602052816000526040600020818154811061037257600080fd5b60009182526020909120600390910201805460018201546002909201546001600160a01b03909116935090915060ff1683565b6001600160a01b0381166000908152606560209081526040808320805482518185028101850190935280835260609492939192909184015b82821015610437576000848152602090819020604080516060810182526003860290920180546001600160a01b031683526001808201548486015260029091015460ff1615159183019190915290835290920191016103dd565b505050509050919050565b6066546001600160a01b031633146104c75760405162461bcd60e51b815260206004820152602360248201527f4f6e6c79206d616e616765722063616e2063616c6c20746869732066756e637460448201527f696f6e000000000000000000000000000000000000000000000000000000000060648201526084015b60405180910390fd5b6040516323b872dd60e01b81523060048201526001600160a01b038581166024830152604482018390528491908216906323b872dd90606401600060405180830381600087803b15801561051a57600080fd5b505af115801561052e573d6000803e3d6000fd5b5050505060005b6001600160a01b038416600090815260656020526040902054811015610653576001600160a01b0384811660009081526065602052604090208054918716918390811061058457610584610e72565b60009182526020909120600390910201546001600160a01b03161480156105e757506001600160a01b03841660009081526065602052604090208054849190839081106105d3576105d3610e72565b906000526020600020906003020160010154145b15610641576001600160a01b03841660009081526065602052604090208054600191908390811061061a5761061a610e72565b60009182526020909120600390910201600201805460ff1916911515919091179055610653565b8061064b81610e88565b915050610535565b506040517fa9059cbb000000000000000000000000000000000000000000000000000000008152336004820152612710602482015273ba777ae3a3c91fcd83ef85bfe65410592bdd0f7c9063a9059cbb906044016020604051808303816000875af11580156106c6573d6000803e3d6000fd5b505050506040513d601f19601f820116820180604052508101906106ea9190610eaf565b6106f357600080fd5b836001600160a01b0316856001600160a01b03167fe4e9a09d2571b5a7e642a0df862bb16130075847155c62df99252066ed02087d8460405161073891815260200190565b60405180910390a35050505050565b61074f610b40565b565b610759610b40565b61074f6000610b9a565b8015610805576040517ff242432a000000000000000000000000000000000000000000000000000000008152336004820152306024820152604481018390526001606482015260a06084820152600060a482015283906001600160a01b0382169063f242432a9060c401600060405180830381600087803b1580156107e757600080fd5b505af11580156107fb573d6000803e3d6000fd5b505050505061086f565b6040516323b872dd60e01b81523360048201523060248201526044810183905283906001600160a01b038216906323b872dd90606401600060405180830381600087803b15801561085557600080fd5b505af1158015610869573d6000803e3d6000fd5b50505050505b33600081815260656020908152604080832081516060810183526001600160a01b038981168083528286018a8152838601888152855460018082018855968a52988890209451600390990290940180546001600160a01b03191698909316979097178255955192810192909255516002909101805460ff1916911515919091179055518581529192917f2cbc28b82cdff5f04b8f88226fe559928dae68690e383e20b7ebe367cd08d13f9101610349565b600054610100900460ff16158080156109405750600054600160ff909116105b8061095a5750303b15801561095a575060005460ff166001145b6109cc5760405162461bcd60e51b815260206004820152602e60248201527f496e697469616c697a61626c653a20636f6e747261637420697320616c72656160448201527f647920696e697469616c697a656400000000000000000000000000000000000060648201526084016104be565b6000805460ff1916600117905580156109ef576000805461ff0019166101001790555b6109f7610bec565b606680546001600160a01b0319166001600160a01b0384161790558015610a58576000805461ff0019169055604051600181527f7f26b83ff96e1f2b6a682f133852f6798a09c465da95921460cefb38474024989060200160405180910390a15b5050565b610a64610b40565b606680546001600160a01b0319166001600160a01b0392909216919091179055565b610a8e610b40565b606780546001600160a01b0319166001600160a01b0392909216919091179055565b610ab8610b40565b6001600160a01b038116610b345760405162461bcd60e51b815260206004820152602660248201527f4f776e61626c653a206e6577206f776e657220697320746865207a65726f206160448201527f646472657373000000000000000000000000000000000000000000000000000060648201526084016104be565b610b3d81610b9a565b50565b6033546001600160a01b0316331461074f5760405162461bcd60e51b815260206004820181905260248201527f4f776e61626c653a2063616c6c6572206973206e6f7420746865206f776e657260448201526064016104be565b603380546001600160a01b038381166001600160a01b0319831681179093556040519116919082907f8be0079c531659141344cd1fd0a4f28419497f9722a3daafe3b4186f6b6457e090600090a35050565b600054610100900460ff16610c695760405162461bcd60e51b815260206004820152602b60248201527f496e697469616c697a61626c653a20636f6e7472616374206973206e6f74206960448201527f6e697469616c697a696e6700000000000000000000000000000000000000000060648201526084016104be565b61074f33610b9a565b80356001600160a01b0381168114610c8957600080fd5b919050565b600080600080600060808688031215610ca657600080fd5b610caf86610c72565b9450610cbd60208701610c72565b935060408601359250606086013567ffffffffffffffff80821115610ce157600080fd5b818801915088601f830112610cf557600080fd5b813581811115610d0457600080fd5b896020828501011115610d1657600080fd5b9699959850939650602001949392505050565b60008060408385031215610d3c57600080fd5b610d4583610c72565b946020939093013593505050565b600060208284031215610d6557600080fd5b610d6e82610c72565b9392505050565b602080825282518282018190526000919060409081850190868401855b82811015610dcc57815180516001600160a01b03168552868101518786015285015115158585015260609093019290850190600101610d92565b5091979650505050505050565b60008060008060808587031215610def57600080fd5b610df885610c72565b9350610e0660208601610c72565b9250610e1460408601610c72565b9396929550929360600135925050565b8015158114610b3d57600080fd5b600080600060608486031215610e4757600080fd5b610e5084610c72565b9250602084013591506040840135610e6781610e24565b809150509250925092565b634e487b7160e01b600052603260045260246000fd5b600060018201610ea857634e487b7160e01b600052601160045260246000fd5b5060010190565b600060208284031215610ec157600080fd5b8151610d6e81610e2456fea2646970667358221220011727e803cb6e463dd8cf5d391ed1faeb6047caa4c25db361e50f45383052a264736f6c63430008110033",
  "linkReferences": {},
  "deployedLinkReferences": {}
}