{
  "_format": "hh-sol-artifact-1",
  "contractName": "GibiBase",
  "sourceName": "contracts/GibiBase.sol",
  "abi": [
    {
      "anonymous": false,
      "inputs": [
        {
          "indexed": false,
          "internalType": "uint8",
          "name": "version",
          "type": "uint8"
        }
      ],
      "name": "Initialized",
      "type": "event"
    },
    {
      "anonymous": false,
      "inputs": [
        {
          "indexed": true,
          "internalType": "address",
          "name": "previousOwner",
          "type": "address"
        },
        {
          "indexed": true,
          "internalType": "address",
          "name": "newOwner",
          "type": "address"
        }
      ],
      "name": "OwnershipTransferred",
      "type": "event"
    },
    {
      "anonymous": false,
      "inputs": [
        {
          "indexed": true,
          "internalType": "address",
          "name": "user",
          "type": "address"
        },
        {
          "indexed": true,
          "internalType": "address",
          "name": "tokenAddress",
          "type": "address"
        },
        {
          "indexed": false,
          "internalType": "uint256",
          "name": "tokenId",
          "type": "uint256"
        }
      ],
      "name": "giveAwayCreated",
      "type": "event"
    },
    {
      "anonymous": false,
      "inputs": [
        {
          "indexed": true,
          "internalType": "address",
          "name": "winner",
          "type": "address"
        },
        {
          "indexed": true,
          "internalType": "address",
          "name": "tokenAddress",
          "type": "address"
        },
        {
          "indexed": false,
          "internalType": "uint256",
          "name": "tokenId",
          "type": "uint256"
        }
      ],
      "name": "winnerNFTTransfer",
      "type": "event"
    },
    {
      "inputs": [],
      "name": "_basedAddress",
      "outputs": [
        {
          "internalType": "address",
          "name": "",
          "type": "address"
        }
      ],
      "stateMutability": "view",
      "type": "function"
    },
    {
      "inputs": [
        {
          "internalType": "address",
          "name": "tokenAddress",
          "type": "address"
        },
        {
          "internalType": "address",
          "name": "creatorAddress",
          "type": "address"
        },
        {
          "internalType": "uint256",
          "name": "tokenId",
          "type": "uint256"
        }
      ],
      "name": "buyRaffleTicket",
      "outputs": [],
      "stateMutability": "nonpayable",
      "type": "function"
    },
    {
      "inputs": [
        {
          "internalType": "address",
          "name": "tokenAddress",
          "type": "address"
        },
        {
          "internalType": "uint256",
          "name": "tokenId",
          "type": "uint256"
        },
        {
          "internalType": "bool",
          "name": "isERC1155",
          "type": "bool"
        },
        {
          "internalType": "bool",
          "name": "isERC20",
          "type": "bool"
        },
        {
          "internalType": "uint256",
          "name": "amount",
          "type": "uint256"
        },
        {
          "internalType": "uint256",
          "name": "ticketPrice",
          "type": "uint256"
        }
      ],
      "name": "createRaffle",
      "outputs": [],
      "stateMutability": "nonpayable",
      "type": "function"
    },
    {
      "inputs": [
        {
          "internalType": "address",
          "name": "creatorAddress",
          "type": "address"
        },
        {
          "internalType": "address",
          "name": "tokenAddress",
          "type": "address"
        },
        {
          "internalType": "uint256",
          "name": "tokenId",
          "type": "uint256"
        }
      ],
      "name": "getRaffleParticipants",
      "outputs": [
        {
          "internalType": "address[]",
          "name": "",
          "type": "address[]"
        }
      ],
      "stateMutability": "view",
      "type": "function"
    },
    {
      "inputs": [
        {
          "internalType": "address",
          "name": "user",
          "type": "address"
        }
      ],
      "name": "getUserRaffles",
      "outputs": [
        {
          "components": [
            {
              "internalType": "address",
              "name": "tokenAddress",
              "type": "address"
            },
            {
              "internalType": "uint256",
              "name": "tokenId",
              "type": "uint256"
            },
            {
              "internalType": "bool",
              "name": "ended",
              "type": "bool"
            },
            {
              "internalType": "uint256",
              "name": "amount",
              "type": "uint256"
            },
            {
              "internalType": "uint256",
              "name": "ticketPrice",
              "type": "uint256"
            },
            {
              "internalType": "address[]",
              "name": "participants",
              "type": "address[]"
            }
          ],
          "internalType": "struct GibiBase.Raffle[]",
          "name": "",
          "type": "tuple[]"
        }
      ],
      "stateMutability": "view",
      "type": "function"
    },
    {
      "inputs": [
        {
          "internalType": "address",
          "name": "_manager",
          "type": "address"
        },
        {
          "internalType": "address",
          "name": "basedAddress",
          "type": "address"
        }
      ],
      "name": "initialize",
      "outputs": [],
      "stateMutability": "nonpayable",
      "type": "function"
    },
    {
      "inputs": [],
      "name": "manager",
      "outputs": [
        {
          "internalType": "address",
          "name": "",
          "type": "address"
        }
      ],
      "stateMutability": "view",
      "type": "function"
    },
    {
      "inputs": [
        {
          "internalType": "address",
          "name": "",
          "type": "address"
        },
        {
          "internalType": "address",
          "name": "",
          "type": "address"
        },
        {
          "internalType": "uint256[]",
          "name": "",
          "type": "uint256[]"
        },
        {
          "internalType": "uint256[]",
          "name": "",
          "type": "uint256[]"
        },
        {
          "internalType": "bytes",
          "name": "",
          "type": "bytes"
        }
      ],
      "name": "onERC1155BatchReceived",
      "outputs": [
        {
          "internalType": "bytes4",
          "name": "",
          "type": "bytes4"
        }
      ],
      "stateMutability": "nonpayable",
      "type": "function"
    },
    {
      "inputs": [
        {
          "internalType": "address",
          "name": "",
          "type": "address"
        },
        {
          "internalType": "address",
          "name": "",
          "type": "address"
        },
        {
          "internalType": "uint256",
          "name": "",
          "type": "uint256"
        },
        {
          "internalType": "uint256",
          "name": "",
          "type": "uint256"
        },
        {
          "internalType": "bytes",
          "name": "",
          "type": "bytes"
        }
      ],
      "name": "onERC1155Received",
      "outputs": [
        {
          "internalType": "bytes4",
          "name": "",
          "type": "bytes4"
        }
      ],
      "stateMutability": "nonpayable",
      "type": "function"
    },
    {
      "inputs": [
        {
          "internalType": "address",
          "name": "",
          "type": "address"
        },
        {
          "internalType": "address",
          "name": "",
          "type": "address"
        },
        {
          "internalType": "uint256",
          "name": "",
          "type": "uint256"
        },
        {
          "internalType": "bytes",
          "name": "",
          "type": "bytes"
        }
      ],
      "name": "onERC721Received",
      "outputs": [
        {
          "internalType": "bytes4",
          "name": "",
          "type": "bytes4"
        }
      ],
      "stateMutability": "pure",
      "type": "function"
    },
    {
      "inputs": [],
      "name": "owner",
      "outputs": [
        {
          "internalType": "address",
          "name": "",
          "type": "address"
        }
      ],
      "stateMutability": "view",
      "type": "function"
    },
    {
      "inputs": [],
      "name": "renounceOwnership",
      "outputs": [],
      "stateMutability": "nonpayable",
      "type": "function"
    },
    {
      "inputs": [],
      "name": "retrieveNFT",
      "outputs": [],
      "stateMutability": "nonpayable",
      "type": "function"
    },
    {
      "inputs": [
        {
          "internalType": "address",
          "name": "coneAddress",
          "type": "address"
        }
      ],
      "name": "setBasedAddress",
      "outputs": [],
      "stateMutability": "nonpayable",
      "type": "function"
    },
    {
      "inputs": [
        {
          "internalType": "address",
          "name": "_manager",
          "type": "address"
        }
      ],
      "name": "setManager",
      "outputs": [],
      "stateMutability": "nonpayable",
      "type": "function"
    },
    {
      "inputs": [
        {
          "internalType": "bytes4",
          "name": "interfaceId",
          "type": "bytes4"
        }
      ],
      "name": "supportsInterface",
      "outputs": [
        {
          "internalType": "bool",
          "name": "",
          "type": "bool"
        }
      ],
      "stateMutability": "view",
      "type": "function"
    },
    {
      "inputs": [
        {
          "internalType": "address",
          "name": "newOwner",
          "type": "address"
        }
      ],
      "name": "transferOwnership",
      "outputs": [],
      "stateMutability": "nonpayable",
      "type": "function"
    },
    {
      "inputs": [
        {
          "internalType": "address",
          "name": "winner",
          "type": "address"
        },
        {
          "internalType": "address",
          "name": "tokenAddress",
          "type": "address"
        },
        {
          "internalType": "address",
          "name": "creatorAddress",
          "type": "address"
        },
        {
          "internalType": "uint256",
          "name": "tokenId",
          "type": "uint256"
        },
        {
          "internalType": "bool",
          "name": "isERC1155",
          "type": "bool"
        },
        {
          "internalType": "bool",
          "name": "isERC20",
          "type": "bool"
        },
        {
          "internalType": "uint256",
          "name": "amount",
          "type": "uint256"
        }
      ],
      "name": "transferWinner",
      "outputs": [],
      "stateMutability": "nonpayable",
      "type": "function"
    },
    {
      "inputs": [
        {
          "internalType": "address",
          "name": "",
          "type": "address"
        },
        {
          "internalType": "uint256",
          "name": "",
          "type": "uint256"
        }
      ],
      "name": "userRaffles",
      "outputs": [
        {
          "internalType": "address",
          "name": "tokenAddress",
          "type": "address"
        },
        {
          "internalType": "uint256",
          "name": "tokenId",
          "type": "uint256"
        },
        {
          "internalType": "bool",
          "name": "ended",
          "type": "bool"
        },
        {
          "internalType": "uint256",
          "name": "amount",
          "type": "uint256"
        },
        {
          "internalType": "uint256",
          "name": "ticketPrice",
          "type": "uint256"
        }
      ],
      "stateMutability": "view",
      "type": "function"
    }
  ],
  "bytecode": "0x608060405234801561001057600080fd5b506120f2806100206000396000f3fe608060405234801561001057600080fd5b50600436106101515760003560e01c8063715018a6116100cd578063d0ebdbe711610081578063dc83e97d11610066578063dc83e97d146103ab578063f23a6e61146103be578063f2fde38b146103f657600080fd5b8063d0ebdbe714610340578063d51075c11461035357600080fd5b80638da5cb5b116100b25780638da5cb5b146102ca57806398d71138146102e8578063bc197c811461030857600080fd5b8063715018a6146102a2578063796c1385146102aa57600080fd5b806346b70f6d11610124578063485cc95511610109578063485cc955146102675780635912c4301461027a578063610bb7351461029a57600080fd5b806346b70f6d1461020f578063481c6a751461022257600080fd5b806301ffc9a7146101565780630ba8520f1461017e578063150b7a02146101935780631d62090b146101fc575b600080fd5b6101696101643660046119cd565b610409565b60405190151581526020015b60405180910390f35b61019161018c366004611a46565b6104a2565b005b6101cb6101a1366004611ac4565b7f150b7a020000000000000000000000000000000000000000000000000000000095945050505050565b6040517fffffffff000000000000000000000000000000000000000000000000000000009091168152602001610175565b61019161020a366004611b5f565b6109e7565b61019161021d366004611b9b565b610d22565b60fc546102429073ffffffffffffffffffffffffffffffffffffffff1681565b60405173ffffffffffffffffffffffffffffffffffffffff9091168152602001610175565b610191610275366004611bfe565b61106d565b60fd546102429073ffffffffffffffffffffffffffffffffffffffff1681565b610191611256565b610191611260565b6102bd6102b8366004611b5f565b611272565b6040516101759190611c31565b60335473ffffffffffffffffffffffffffffffffffffffff16610242565b6102fb6102f6366004611c8b565b6114a3565b6040516101759190611ca6565b6101cb610316366004611f37565b7fbc197c810000000000000000000000000000000000000000000000000000000095945050505050565b61019161034e366004611c8b565b6115d9565b610366610361366004611fe1565b611628565b6040805173ffffffffffffffffffffffffffffffffffffffff90961686526020860194909452911515928401929092526060830191909152608082015260a001610175565b6101916103b9366004611c8b565b611690565b6101cb6103cc36600461200b565b7ff23a6e610000000000000000000000000000000000000000000000000000000095945050505050565b610191610404366004611c8b565b6116df565b60007fffffffff0000000000000000000000000000000000000000000000000000000082167f4e2312e000000000000000000000000000000000000000000000000000000000148061049c57507f01ffc9a7000000000000000000000000000000000000000000000000000000007fffffffff000000000000000000000000000000000000000000000000000000008316145b92915050565b60fc5473ffffffffffffffffffffffffffffffffffffffff16331461054e576040517f08c379a000000000000000000000000000000000000000000000000000000000815260206004820152602360248201527f4f6e6c79206d616e616765722063616e2063616c6c20746869732066756e637460448201527f696f6e000000000000000000000000000000000000000000000000000000000060648201526084015b60405180910390fd5b8215610600576040517ff242432a00000000000000000000000000000000000000000000000000000000815230600482015273ffffffffffffffffffffffffffffffffffffffff8881166024830152604482018690526001606483015260a06084830152600060a483015287919082169063f242432a9060c401600060405180830381600087803b1580156105e257600080fd5b505af11580156105f6573d6000803e3d6000fd5b505050505061073c565b81156106a9576040517fa9059cbb00000000000000000000000000000000000000000000000000000000815273ffffffffffffffffffffffffffffffffffffffff88811660048301526024820183905287919082169063a9059cbb906044016020604051808303816000875af115801561067e573d6000803e3d6000fd5b505050506040513d601f19601f820116820180604052508101906106a29190612070565b505061073c565b6040517f23b872dd00000000000000000000000000000000000000000000000000000000815230600482015273ffffffffffffffffffffffffffffffffffffffff8881166024830152604482018690528791908216906323b872dd90606401600060405180830381600087803b15801561072257600080fd5b505af1158015610736573d6000803e3d6000fd5b50505050505b6000805b73ffffffffffffffffffffffffffffffffffffffff8716600090815260fb602052604090205481101561090e5773ffffffffffffffffffffffffffffffffffffffff878116600090815260fb602052604090208054918a1691839081106107a9576107a961208d565b600091825260209091206006909102015473ffffffffffffffffffffffffffffffffffffffff16148015610826575073ffffffffffffffffffffffffffffffffffffffff8716600090815260fb602052604090208054879190839081106108125761081261208d565b906000526020600020906006020160010154145b801561087d575073ffffffffffffffffffffffffffffffffffffffff8716600090815260fb602052604090208054829081106108645761086461208d565b600091825260209091206002600690920201015460ff16155b156109065773ffffffffffffffffffffffffffffffffffffffff8716600090815260fb60205260409020805460019190839081106108bd576108bd61208d565b6000918252602090912060069091020160020180547fffffffffffffffffffffffffffffffffffffffffffffffffffffffffffffff00169115159190911790556001915061090e565b600101610740565b5080610976576040517f08c379a000000000000000000000000000000000000000000000000000000000815260206004820152601060248201527f526166666c65206e6f7420666f756e64000000000000000000000000000000006044820152606401610545565b8673ffffffffffffffffffffffffffffffffffffffff168873ffffffffffffffffffffffffffffffffffffffff167fe4e9a09d2571b5a7e642a0df862bb16130075847155c62df99252066ed02087d876040516109d591815260200190565b60405180910390a35050505050505050565b6000805b73ffffffffffffffffffffffffffffffffffffffff8416600090815260fb6020526040902054811015610cb45773ffffffffffffffffffffffffffffffffffffffff848116600090815260fb6020526040902080549187169183908110610a5457610a5461208d565b600091825260209091206006909102015473ffffffffffffffffffffffffffffffffffffffff16148015610ad1575073ffffffffffffffffffffffffffffffffffffffff8416600090815260fb60205260409020805484919083908110610abd57610abd61208d565b906000526020600020906006020160010154145b8015610b28575073ffffffffffffffffffffffffffffffffffffffff8416600090815260fb60205260409020805482908110610b0f57610b0f61208d565b600091825260209091206002600690920201015460ff16155b15610cac5760fd5473ffffffffffffffffffffffffffffffffffffffff858116600090815260fb60205260409020805491909216916323b872dd913391309186908110610b7757610b7761208d565b9060005260206000209060060201600401546040518463ffffffff1660e01b8152600401610bd39392919073ffffffffffffffffffffffffffffffffffffffff9384168152919092166020820152604081019190915260600190565b6020604051808303816000875af1158015610bf2573d6000803e3d6000fd5b505050506040513d601f19601f82011682018060405250810190610c169190612070565b610c1f57600080fd5b73ffffffffffffffffffffffffffffffffffffffff8416600090815260fb60205260409020805482908110610c5657610c5661208d565b60009182526020808320600560069093020191909101805460018181018355918452919092200180547fffffffffffffffffffffffff000000000000000000000000000000000000000016331790559150610cb4565b6001016109eb565b5080610d1c576040517f08c379a000000000000000000000000000000000000000000000000000000000815260206004820152601060248201527f526166666c65206e6f7420666f756e64000000000000000000000000000000006044820152606401610545565b50505050565b8315610dd1576040517ff242432a000000000000000000000000000000000000000000000000000000008152336004820152306024820152604481018690526001606482015260a06084820152600060a4820152869073ffffffffffffffffffffffffffffffffffffffff82169063f242432a9060c401600060405180830381600087803b158015610db357600080fd5b505af1158015610dc7573d6000803e3d6000fd5b5050505050610f0d565b8215610e7d576040517f23b872dd00000000000000000000000000000000000000000000000000000000815233600482015230602482015260448101839052869073ffffffffffffffffffffffffffffffffffffffff8216906323b872dd906064016020604051808303816000875af1158015610e52573d6000803e3d6000fd5b505050506040513d601f19601f82011682018060405250810190610e769190612070565b5050610f0d565b6040517f23b872dd00000000000000000000000000000000000000000000000000000000815233600482015230602482015260448101869052869073ffffffffffffffffffffffffffffffffffffffff8216906323b872dd90606401600060405180830381600087803b158015610ef357600080fd5b505af1158015610f07573d6000803e3d6000fd5b50505050505b33600090815260fb60209081526040808320815160c08101835273ffffffffffffffffffffffffffffffffffffffff8b811682528185018b8152828501878152606084018a8152608085018a815287518a8152808a0190985260a08601978852865460018082018955978b529989902086516006909b020180547fffffffffffffffffffffffff0000000000000000000000000000000000000000169a90951699909917845591519483019490945592516002820180547fffffffffffffffffffffffffffffffffffffffffffffffffffffffffffffff001691151591909117905591516003830155935160048201559051805191926110159260058501929091019061192e565b505060405186815273ffffffffffffffffffffffffffffffffffffffff8816915033907f2cbc28b82cdff5f04b8f88226fe559928dae68690e383e20b7ebe367cd08d13f9060200160405180910390a3505050505050565b600054610100900460ff161580801561108d5750600054600160ff909116105b806110a75750303b1580156110a7575060005460ff166001145b611133576040517f08c379a000000000000000000000000000000000000000000000000000000000815260206004820152602e60248201527f496e697469616c697a61626c653a20636f6e747261637420697320616c72656160448201527f647920696e697469616c697a65640000000000000000000000000000000000006064820152608401610545565b600080547fffffffffffffffffffffffffffffffffffffffffffffffffffffffffffffff00166001179055801561119157600080547fffffffffffffffffffffffffffffffffffffffffffffffffffffffffffff00ff166101001790555b611199611796565b60fc805473ffffffffffffffffffffffffffffffffffffffff8086167fffffffffffffffffffffffff00000000000000000000000000000000000000009283161790925560fd805492851692909116919091179055801561125157600080547fffffffffffffffffffffffffffffffffffffffffffffffffffffffffffff00ff169055604051600181527f7f26b83ff96e1f2b6a682f133852f6798a09c465da95921460cefb38474024989060200160405180910390a15b505050565b61125e611836565b565b611268611836565b61125e60006118b7565b60606000805b73ffffffffffffffffffffffffffffffffffffffff8616600090815260fb60205260409020548110156114225773ffffffffffffffffffffffffffffffffffffffff868116600090815260fb60205260409020805491871691839081106112e1576112e161208d565b600091825260209091206006909102015473ffffffffffffffffffffffffffffffffffffffff1614801561135e575073ffffffffffffffffffffffffffffffffffffffff8616600090815260fb6020526040902080548591908390811061134a5761134a61208d565b906000526020600020906006020160010154145b1561141a5773ffffffffffffffffffffffffffffffffffffffff8616600090815260fb6020526040902080548290811061139a5761139a61208d565b906000526020600020906006020160050180548060200260200160405190810160405280929190818152602001828054801561140c57602002820191906000526020600020905b815473ffffffffffffffffffffffffffffffffffffffff1681526001909101906020018083116113e1575b50505050509250505061149c565b600101611278565b508061148a576040517f08c379a000000000000000000000000000000000000000000000000000000000815260206004820152601060248201527f526166666c65206e6f7420666f756e64000000000000000000000000000000006044820152606401610545565b50506040805160008152602081019091525b9392505050565b73ffffffffffffffffffffffffffffffffffffffff8116600090815260fb60209081526040808320805482518185028101850190935280835260609492939192909184015b828210156115ce5760008481526020908190206040805160c08101825260068602909201805473ffffffffffffffffffffffffffffffffffffffff168352600181015483850152600281015460ff1615158383015260038101546060840152600481015460808401526005810180548351818702810187019094528084529394919360a0860193928301828280156115b657602002820191906000526020600020905b815473ffffffffffffffffffffffffffffffffffffffff16815260019091019060200180831161158b575b505050505081525050815260200190600101906114e8565b505050509050919050565b6115e1611836565b60fc80547fffffffffffffffffffffffff00000000000000000000000000000000000000001673ffffffffffffffffffffffffffffffffffffffff92909216919091179055565b60fb602052816000526040600020818154811061164457600080fd5b60009182526020909120600690910201805460018201546002830154600384015460049094015473ffffffffffffffffffffffffffffffffffffffff909316955090935060ff16919085565b611698611836565b60fd80547fffffffffffffffffffffffff00000000000000000000000000000000000000001673ffffffffffffffffffffffffffffffffffffffff92909216919091179055565b6116e7611836565b73ffffffffffffffffffffffffffffffffffffffff811661178a576040517f08c379a000000000000000000000000000000000000000000000000000000000815260206004820152602660248201527f4f776e61626c653a206e6577206f776e657220697320746865207a65726f206160448201527f64647265737300000000000000000000000000000000000000000000000000006064820152608401610545565b611793816118b7565b50565b600054610100900460ff1661182d576040517f08c379a000000000000000000000000000000000000000000000000000000000815260206004820152602b60248201527f496e697469616c697a61626c653a20636f6e7472616374206973206e6f74206960448201527f6e697469616c697a696e670000000000000000000000000000000000000000006064820152608401610545565b61125e336118b7565b60335473ffffffffffffffffffffffffffffffffffffffff16331461125e576040517f08c379a000000000000000000000000000000000000000000000000000000000815260206004820181905260248201527f4f776e61626c653a2063616c6c6572206973206e6f7420746865206f776e65726044820152606401610545565b6033805473ffffffffffffffffffffffffffffffffffffffff8381167fffffffffffffffffffffffff0000000000000000000000000000000000000000831681179093556040519116919082907f8be0079c531659141344cd1fd0a4f28419497f9722a3daafe3b4186f6b6457e090600090a35050565b8280548282559060005260206000209081019282156119a8579160200282015b828111156119a857825182547fffffffffffffffffffffffff00000000000000000000000000000000000000001673ffffffffffffffffffffffffffffffffffffffff90911617825560209092019160019091019061194e565b506119b49291506119b8565b5090565b5b808211156119b457600081556001016119b9565b6000602082840312156119df57600080fd5b81357fffffffff000000000000000000000000000000000000000000000000000000008116811461149c57600080fd5b803573ffffffffffffffffffffffffffffffffffffffff81168114611a3357600080fd5b919050565b801515811461179357600080fd5b600080600080600080600060e0888a031215611a6157600080fd5b611a6a88611a0f565b9650611a7860208901611a0f565b9550611a8660408901611a0f565b9450606088013593506080880135611a9d81611a38565b925060a0880135611aad81611a38565b8092505060c0880135905092959891949750929550565b600080600080600060808688031215611adc57600080fd5b611ae586611a0f565b9450611af360208701611a0f565b935060408601359250606086013567ffffffffffffffff80821115611b1757600080fd5b818801915088601f830112611b2b57600080fd5b813581811115611b3a57600080fd5b896020828501011115611b4c57600080fd5b9699959850939650602001949392505050565b600080600060608486031215611b7457600080fd5b611b7d84611a0f565b9250611b8b60208501611a0f565b9150604084013590509250925092565b60008060008060008060c08789031215611bb457600080fd5b611bbd87611a0f565b9550602087013594506040870135611bd481611a38565b93506060870135611be481611a38565b9598949750929560808101359460a0909101359350915050565b60008060408385031215611c1157600080fd5b611c1a83611a0f565b9150611c2860208401611a0f565b90509250929050565b6020808252825182820181905260009190848201906040850190845b81811015611c7f57835173ffffffffffffffffffffffffffffffffffffffff1683529284019291840191600101611c4d565b50909695505050505050565b600060208284031215611c9d57600080fd5b61149c82611a0f565b600060208083018184528085518083526040925060408601915060408160051b8701018488016000805b84811015611d9c578984037fffffffffffffffffffffffffffffffffffffffffffffffffffffffffffffffc00186528251805173ffffffffffffffffffffffffffffffffffffffff9081168652898201518a87015288820151151589870152606080830151908701526080808301519087015260a09182015160c092870183905280519287018390528a019160e087019185915b80831015611d8657845182168452938c0193928c019260019290920191611d64565b5050509689019694505091870191600101611cd0565b50919998505050505050505050565b7f4e487b7100000000000000000000000000000000000000000000000000000000600052604160045260246000fd5b604051601f82017fffffffffffffffffffffffffffffffffffffffffffffffffffffffffffffffe016810167ffffffffffffffff81118282101715611e2157611e21611dab565b604052919050565b600082601f830112611e3a57600080fd5b8135602067ffffffffffffffff821115611e5657611e56611dab565b8160051b611e65828201611dda565b9283528481018201928281019087851115611e7f57600080fd5b83870192505b84831015611e9e57823582529183019190830190611e85565b979650505050505050565b600082601f830112611eba57600080fd5b813567ffffffffffffffff811115611ed457611ed4611dab565b611f0560207fffffffffffffffffffffffffffffffffffffffffffffffffffffffffffffffe0601f84011601611dda565b818152846020838601011115611f1a57600080fd5b816020850160208301376000918101602001919091529392505050565b600080600080600060a08688031215611f4f57600080fd5b611f5886611a0f565b9450611f6660208701611a0f565b9350604086013567ffffffffffffffff80821115611f8357600080fd5b611f8f89838a01611e29565b94506060880135915080821115611fa557600080fd5b611fb189838a01611e29565b93506080880135915080821115611fc757600080fd5b50611fd488828901611ea9565b9150509295509295909350565b60008060408385031215611ff457600080fd5b611ffd83611a0f565b946020939093013593505050565b600080600080600060a0868803121561202357600080fd5b61202c86611a0f565b945061203a60208701611a0f565b93506040860135925060608601359150608086013567ffffffffffffffff81111561206457600080fd5b611fd488828901611ea9565b60006020828403121561208257600080fd5b815161149c81611a38565b7f4e487b7100000000000000000000000000000000000000000000000000000000600052603260045260246000fdfea264697066735822122076cb28fb180b6633c2ee33c067e940aee73c846cc4e73d3d3b1b3d1b445b25c564736f6c63430008180033",
  "linkReferences": {},
  "deployedLinkReferences": {}
}