{
  "_format": "hh-sol-artifact-1",
  "contractName": "PixelOpepen",
  "sourceName": "contracts/PixelOpepen.sol",
  "abi": [
    {
      "anonymous": false,
      "inputs": [
        {
          "indexed": true,
          "internalType": "address",
          "name": "owner",
          "type": "address"
        },
        {
          "indexed": true,
          "internalType": "address",
          "name": "approved",
          "type": "address"
        },
        {
          "indexed": true,
          "internalType": "uint256",
          "name": "tokenId",
          "type": "uint256"
        }
      ],
      "name": "Approval",
      "type": "event"
    },
    {
      "anonymous": false,
      "inputs": [
        {
          "indexed": true,
          "internalType": "address",
          "name": "owner",
          "type": "address"
        },
        {
          "indexed": true,
          "internalType": "address",
          "name": "operator",
          "type": "address"
        },
        {
          "indexed": false,
          "internalType": "bool",
          "name": "approved",
          "type": "bool"
        }
      ],
      "name": "ApprovalForAll",
      "type": "event"
    },
    {
      "anonymous": false,
      "inputs": [
        {
          "indexed": false,
          "internalType": "uint8",
          "name": "version",
          "type": "uint8"
        }
      ],
      "name": "Initialized",
      "type": "event"
    },
    {
      "anonymous": false,
      "inputs": [
        {
          "indexed": true,
          "internalType": "address",
          "name": "previousOwner",
          "type": "address"
        },
        {
          "indexed": true,
          "internalType": "address",
          "name": "newOwner",
          "type": "address"
        }
      ],
      "name": "OwnershipTransferred",
      "type": "event"
    },
    {
      "anonymous": false,
      "inputs": [
        {
          "indexed": true,
          "internalType": "address",
          "name": "from",
          "type": "address"
        },
        {
          "indexed": true,
          "internalType": "address",
          "name": "to",
          "type": "address"
        },
        {
          "indexed": true,
          "internalType": "uint256",
          "name": "tokenId",
          "type": "uint256"
        }
      ],
      "name": "Transfer",
      "type": "event"
    },
    {
      "inputs": [
        {
          "internalType": "address",
          "name": "to",
          "type": "address"
        },
        {
          "internalType": "uint256",
          "name": "tokenId",
          "type": "uint256"
        }
      ],
      "name": "approve",
      "outputs": [],
      "stateMutability": "nonpayable",
      "type": "function"
    },
    {
      "inputs": [
        {
          "internalType": "address",
          "name": "owner",
          "type": "address"
        }
      ],
      "name": "balanceOf",
      "outputs": [
        {
          "internalType": "uint256",
          "name": "",
          "type": "uint256"
        }
      ],
      "stateMutability": "view",
      "type": "function"
    },
    {
      "inputs": [
        {
          "internalType": "uint256",
          "name": "tokenId",
          "type": "uint256"
        }
      ],
      "name": "checkOwnerOfUnmask",
      "outputs": [
        {
          "internalType": "address",
          "name": "",
          "type": "address"
        }
      ],
      "stateMutability": "view",
      "type": "function"
    },
    {
      "inputs": [
        {
          "internalType": "uint256[]",
          "name": "tokenIds",
          "type": "uint256[]"
        }
      ],
      "name": "checkValidMints",
      "outputs": [
        {
          "internalType": "uint256",
          "name": "",
          "type": "uint256"
        }
      ],
      "stateMutability": "view",
      "type": "function"
    },
    {
      "inputs": [
        {
          "internalType": "uint256",
          "name": "numToMint",
          "type": "uint256"
        }
      ],
      "name": "devMint",
      "outputs": [],
      "stateMutability": "nonpayable",
      "type": "function"
    },
    {
      "inputs": [
        {
          "internalType": "uint256",
          "name": "tokenId",
          "type": "uint256"
        }
      ],
      "name": "getApproved",
      "outputs": [
        {
          "internalType": "address",
          "name": "",
          "type": "address"
        }
      ],
      "stateMutability": "view",
      "type": "function"
    },
    {
      "inputs": [],
      "name": "getDevSupply",
      "outputs": [
        {
          "internalType": "uint256",
          "name": "",
          "type": "uint256"
        }
      ],
      "stateMutability": "view",
      "type": "function"
    },
    {
      "inputs": [],
      "name": "getSupply",
      "outputs": [
        {
          "internalType": "uint256",
          "name": "",
          "type": "uint256"
        }
      ],
      "stateMutability": "view",
      "type": "function"
    },
    {
      "inputs": [],
      "name": "getUnmaskAddress",
      "outputs": [
        {
          "internalType": "address",
          "name": "",
          "type": "address"
        }
      ],
      "stateMutability": "view",
      "type": "function"
    },
    {
      "inputs": [
        {
          "internalType": "address",
          "name": "devAddress",
          "type": "address"
        },
        {
          "internalType": "address",
          "name": "unmaskAddress",
          "type": "address"
        }
      ],
      "name": "initialize",
      "outputs": [],
      "stateMutability": "nonpayable",
      "type": "function"
    },
    {
      "inputs": [
        {
          "internalType": "address",
          "name": "owner",
          "type": "address"
        },
        {
          "internalType": "address",
          "name": "operator",
          "type": "address"
        }
      ],
      "name": "isApprovedForAll",
      "outputs": [
        {
          "internalType": "bool",
          "name": "",
          "type": "bool"
        }
      ],
      "stateMutability": "view",
      "type": "function"
    },
    {
      "inputs": [
        {
          "internalType": "address",
          "name": "owner",
          "type": "address"
        },
        {
          "internalType": "address",
          "name": "spender",
          "type": "address"
        }
      ],
      "name": "allowance",
      "outputs": [
        {
          "internalType": "uint256",
          "name": "",
          "type": "uint256"
        }
      ],
      "stateMutability": "view",
      "type": "function"
    },
    {
      "inputs": [
        {
          "internalType": "uint256[]",
          "name": "tokenIds",
          "type": "uint256[]"
        }
      ],
      "name": "maskerMint",
      "outputs": [],
      "stateMutability": "nonpayable",
      "type": "function"
    },
    {
      "inputs": [],
      "name": "name",
      "outputs": [
        {
          "internalType": "string",
          "name": "",
          "type": "string"
        }
      ],
      "stateMutability": "view",
      "type": "function"
    },
    {
      "inputs": [],
      "name": "owner",
      "outputs": [
        {
          "internalType": "address",
          "name": "",
          "type": "address"
        }
      ],
      "stateMutability": "view",
      "type": "function"
    },
    {
      "inputs": [
        {
          "internalType": "uint256",
          "name": "tokenId",
          "type": "uint256"
        }
      ],
      "name": "ownerOf",
      "outputs": [
        {
          "internalType": "address",
          "name": "",
          "type": "address"
        }
      ],
      "stateMutability": "view",
      "type": "function"
    },
    {
      "inputs": [],
      "name": "payMe",
      "outputs": [
        {
          "internalType": "bool",
          "name": "success",
          "type": "bool"
        }
      ],
      "stateMutability": "payable",
      "type": "function"
    },
    {
      "inputs": [],
      "name": "renounceOwnership",
      "outputs": [],
      "stateMutability": "nonpayable",
      "type": "function"
    },
    {
      "inputs": [
        {
          "internalType": "uint256",
          "name": "tokenId",
          "type": "uint256"
        },
        {
          "internalType": "uint256",
          "name": "salePrice",
          "type": "uint256"
        }
      ],
      "name": "royaltyInfo",
      "outputs": [
        {
          "internalType": "address",
          "name": "",
          "type": "address"
        },
        {
          "internalType": "uint256",
          "name": "",
          "type": "uint256"
        }
      ],
      "stateMutability": "view",
      "type": "function"
    },
    {
      "inputs": [
        {
          "internalType": "address",
          "name": "from",
          "type": "address"
        },
        {
          "internalType": "address",
          "name": "to",
          "type": "address"
        },
        {
          "internalType": "uint256",
          "name": "tokenId",
          "type": "uint256"
        }
      ],
      "name": "safeTransferFrom",
      "outputs": [],
      "stateMutability": "nonpayable",
      "type": "function"
    },
    {
      "inputs": [
        {
          "internalType": "address",
          "name": "from",
          "type": "address"
        },
        {
          "internalType": "address",
          "name": "to",
          "type": "address"
        },
        {
          "internalType": "uint256",
          "name": "tokenId",
          "type": "uint256"
        },
        {
          "internalType": "bytes",
          "name": "data",
          "type": "bytes"
        }
      ],
      "name": "safeTransferFrom",
      "outputs": [],
      "stateMutability": "nonpayable",
      "type": "function"
    },
    {
      "inputs": [
        {
          "internalType": "address",
          "name": "operator",
          "type": "address"
        },
        {
          "internalType": "bool",
          "name": "approved",
          "type": "bool"
        }
      ],
      "name": "setApprovalForAll",
      "outputs": [],
      "stateMutability": "nonpayable",
      "type": "function"
    },
    {
      "inputs": [
        {
          "internalType": "string",
          "name": "baseURI",
          "type": "string"
        }
      ],
      "name": "setBaseURI",
      "outputs": [],
      "stateMutability": "nonpayable",
      "type": "function"
    },
    {
      "inputs": [
        {
          "internalType": "bool",
          "name": "pause",
          "type": "bool"
        }
      ],
      "name": "setPause",
      "outputs": [],
      "stateMutability": "nonpayable",
      "type": "function"
    },
    {
      "inputs": [
        {
          "internalType": "address",
          "name": "unmaskAddress",
          "type": "address"
        }
      ],
      "name": "setUnmaskAddress",
      "outputs": [],
      "stateMutability": "nonpayable",
      "type": "function"
    },
    {
      "inputs": [
        {
          "internalType": "bytes4",
          "name": "interfaceId",
          "type": "bytes4"
        }
      ],
      "name": "supportsInterface",
      "outputs": [
        {
          "internalType": "bool",
          "name": "",
          "type": "bool"
        }
      ],
      "stateMutability": "view",
      "type": "function"
    },
    {
      "inputs": [],
      "name": "symbol",
      "outputs": [
        {
          "internalType": "string",
          "name": "",
          "type": "string"
        }
      ],
      "stateMutability": "view",
      "type": "function"
    },
    {
      "inputs": [
        {
          "internalType": "uint256",
          "name": "index",
          "type": "uint256"
        }
      ],
      "name": "tokenByIndex",
      "outputs": [
        {
          "internalType": "uint256",
          "name": "",
          "type": "uint256"
        }
      ],
      "stateMutability": "view",
      "type": "function"
    },
    {
      "inputs": [
        {
          "internalType": "address",
          "name": "owner",
          "type": "address"
        },
        {
          "internalType": "uint256",
          "name": "index",
          "type": "uint256"
        }
      ],
      "name": "tokenOfOwnerByIndex",
      "outputs": [
        {
          "internalType": "uint256",
          "name": "",
          "type": "uint256"
        }
      ],
      "stateMutability": "view",
      "type": "function"
    },
    {
      "inputs": [
        {
          "internalType": "uint256",
          "name": "tokenId",
          "type": "uint256"
        }
      ],
      "name": "tokenURI",
      "outputs": [
        {
          "internalType": "string",
          "name": "",
          "type": "string"
        }
      ],
      "stateMutability": "view",
      "type": "function"
    },
    {
      "inputs": [],
      "name": "totalSupply",
      "outputs": [
        {
          "internalType": "uint256",
          "name": "",
          "type": "uint256"
        }
      ],
      "stateMutability": "view",
      "type": "function"
    },
    {
      "inputs": [
        {
          "internalType": "address",
          "name": "from",
          "type": "address"
        },
        {
          "internalType": "address",
          "name": "to",
          "type": "address"
        },
        {
          "internalType": "uint256",
          "name": "tokenId",
          "type": "uint256"
        }
      ],
      "name": "transferFrom",
      "outputs": [],
      "stateMutability": "nonpayable",
      "type": "function"
    },
    {
      "inputs": [
        {
          "internalType": "address",
          "name": "newOwner",
          "type": "address"
        }
      ],
      "name": "transferOwnership",
      "outputs": [],
      "stateMutability": "nonpayable",
      "type": "function"
    }
  ],
  "bytecode": "0x608060405234801561001057600080fd5b50612c35806100206000396000f3fe6080604052600436106101e35760003560e01c80636c9c2faf11610102578063af58a41511610095578063d997ccb311610064578063d997ccb314610589578063e985e9c514610590578063f2fde38b146105d9578063fbb04cdd146105f957600080fd5b8063af58a41514610513578063b88d4fde14610529578063bedb86fb14610549578063c87b56dd1461056957600080fd5b80638da5cb5b116100d15780638da5cb5b146104a057806395d89b41146104be578063a22cb465146104d3578063a5ce4b9a146104f357600080fd5b80636c9c2faf146104365780636f757b4c1461044b57806370a082311461046b578063715018a61461048b57600080fd5b80632f745c591161017a578063485cc95511610149578063485cc955146103b65780634f6ccce7146103d657806355f804b3146103f65780636352211e1461041657600080fd5b80632f745c5914610336578063375a069a1461035657806342842e0e1461037657806347a09d631461039657600080fd5b806315519686116101b6578063155196861461029957806318160ddd146102b857806323b872dd146102d75780632a55205a146102f757600080fd5b806301ffc9a7146101e857806306fdde031461021d578063081812fc1461023f578063095ea7b314610277575b600080fd5b3480156101f457600080fd5b5061020861020336600461247c565b610619565b60405190151581526020015b60405180910390f35b34801561022957600080fd5b5061023261062a565b60405161021491906124e9565b34801561024b57600080fd5b5061025f61025a3660046124fc565b6106bc565b6040516001600160a01b039091168152602001610214565b34801561028357600080fd5b5061029761029236600461252a565b6106e3565b005b3480156102a557600080fd5b50610160546001600160a01b031661025f565b3480156102c457600080fd5b5060fd545b604051908152602001610214565b3480156102e357600080fd5b506102976102f2366004612556565b610819565b34801561030357600080fd5b50610317610312366004612597565b610890565b604080516001600160a01b039093168352602083019190915201610214565b34801561034257600080fd5b506102c961035136600461252a565b61094b565b34801561036257600080fd5b506102976103713660046124fc565b6109f3565b34801561038257600080fd5b50610297610391366004612556565b610b25565b3480156103a257600080fd5b5061025f6103b13660046124fc565b610b40565b3480156103c257600080fd5b506102976103d13660046125b9565b610bd1565b3480156103e257600080fd5b506102c96103f13660046124fc565b610db0565b34801561040257600080fd5b506102976104113660046125f2565b610e54565b34801561042257600080fd5b5061025f6104313660046124fc565b610e6a565b34801561044257600080fd5b506102c9610ecf565b34801561045757600080fd5b506102c96104663660046126ab565b610edf565b34801561047757600080fd5b506102c9610486366004612751565b610ffe565b34801561049757600080fd5b50610297611098565b3480156104ac57600080fd5b506033546001600160a01b031661025f565b3480156104ca57600080fd5b506102326110ac565b3480156104df57600080fd5b506102976104ee366004612783565b6110bb565b3480156104ff57600080fd5b5061029761050e366004612751565b6110ca565b34801561051f57600080fd5b50610161546102c9565b34801561053557600080fd5b506102976105443660046127b8565b6110f5565b34801561055557600080fd5b5061029761056436600461287c565b611173565b34801561057557600080fd5b506102326105843660046124fc565b61118f565b6001610208565b34801561059c57600080fd5b506102086105ab3660046125b9565b6001600160a01b03918216600090815260ce6020908152604080832093909416825291909152205460ff1690565b3480156105e557600080fd5b506102976105f4366004612751565b6111f5565b34801561060557600080fd5b506102976106143660046126ab565b611285565b600061062482611524565b92915050565b606060c9805461063990612897565b80601f016020809104026020016040519081016040528092919081815260200182805461066590612897565b80156106b25780601f10610687576101008083540402835291602001916106b2565b820191906000526020600020905b81548152906001019060200180831161069557829003601f168201915b5050505050905090565b60006106c78261152f565b50600090815260cd60205260409020546001600160a01b031690565b60006106ee82610e6a565b9050806001600160a01b0316836001600160a01b03160361077c5760405162461bcd60e51b815260206004820152602160248201527f4552433732313a20617070726f76616c20746f2063757272656e74206f776e6560448201527f720000000000000000000000000000000000000000000000000000000000000060648201526084015b60405180910390fd5b336001600160a01b0382161480610798575061079881336105ab565b61080a5760405162461bcd60e51b815260206004820152603d60248201527f4552433732313a20617070726f76652063616c6c6572206973206e6f7420746f60448201527f6b656e206f776e6572206f7220617070726f76656420666f7220616c6c0000006064820152608401610773565b6108148383611593565b505050565b6108233382611601565b6108855760405162461bcd60e51b815260206004820152602d60248201527f4552433732313a2063616c6c6572206973206e6f7420746f6b656e206f776e6560448201526c1c881bdc88185c1c1c9bdd9959609a1b6064820152608401610773565b610814838383611680565b60008281526098602090815260408083208151808301909252546001600160a01b038116808352600160a01b9091046bffffffffffffffffffffffff1692820192909252829161090f5750604080518082019091526097546001600160a01b0381168252600160a01b90046bffffffffffffffffffffffff1660208201525b602081015160009061271090610933906bffffffffffffffffffffffff16876128e7565b61093d91906128fe565b915196919550909350505050565b600061095683610ffe565b82106109ca5760405162461bcd60e51b815260206004820152602b60248201527f455243373231456e756d657261626c653a206f776e657220696e646578206f7560448201527f74206f6620626f756e64730000000000000000000000000000000000000000006064820152608401610773565b506001600160a01b0391909116600090815260fb60209081526040808320938352929052205490565b60006109fe60fd5490565b6101635490915060ff16610a425760405162461bcd60e51b815260206004820152600b60248201526a14d85b19481c185d5cd95960aa1b6044820152606401610773565b610162548110610a855760405162461bcd60e51b815260206004820152600e60248201526d4578636565647320737570706c7960901b6044820152606401610773565b61016154821115610ad85760405162461bcd60e51b815260206004820152601260248201527f457863656564732064657620737570706c7900000000000000000000000000006044820152606401610773565b60005b82811015610b0857610af633610af18385612920565b611884565b80610b0081612933565b915050610adb565b50816101616000828254610b1c919061294c565b90915550505050565b610814838383604051806020016040528060008152506110f5565b610160546040517f6352211e000000000000000000000000000000000000000000000000000000008152600481018390526000916001600160a01b0316908190636352211e90602401602060405180830381865afa158015610ba6573d6000803e3d6000fd5b505050506040513d601f19601f82011682018060405250810190610bca919061295f565b9392505050565b600054610100900460ff1615808015610bf15750600054600160ff909116105b80610c0b5750303b158015610c0b575060005460ff166001145b610c7d5760405162461bcd60e51b815260206004820152602e60248201527f496e697469616c697a61626c653a20636f6e747261637420697320616c72656160448201527f647920696e697469616c697a65640000000000000000000000000000000000006064820152608401610773565b6000805460ff191660011790558015610ca0576000805461ff0019166101001790555b610d146040518060400160405280600c81526020017f506978656c204f706570656e00000000000000000000000000000000000000008152506040518060400160405280600681526020017f4f504550454e000000000000000000000000000000000000000000000000000081525061189e565b610d1c611913565b61015f80546001600160a01b038086166001600160a01b03199283161790925560c86101615561053561016255610163805460ff191690556101608054928516929091169190911790558015610814576000805461ff0019169055604051600181527f7f26b83ff96e1f2b6a682f133852f6798a09c465da95921460cefb38474024989060200160405180910390a1505050565b6000610dbb60fd5490565b8210610e2f5760405162461bcd60e51b815260206004820152602c60248201527f455243373231456e756d657261626c653a20676c6f62616c20696e646578206f60448201527f7574206f6620626f756e647300000000000000000000000000000000000000006064820152608401610773565b60fd8281548110610e4257610e4261297c565b90600052602060002001549050919050565b610e5c611987565b6101646108148284836129e0565b600081815260cb60205260408120546001600160a01b0316806106245760405162461bcd60e51b815260206004820152601860248201527f4552433732313a20696e76616c696420746f6b656e20494400000000000000006044820152606401610773565b6000610eda60fd5490565b905090565b6101605460009081906001600160a01b0316815b8451811015610ff557336001600160a01b0316826001600160a01b0316636352211e878481518110610f2757610f2761297c565b60200260200101516040518263ffffffff1660e01b8152600401610f4d91815260200190565b602060405180830381865afa158015610f6a573d6000803e3d6000fd5b505050506040513d601f19601f82011682018060405250810190610f8e919061295f565b6001600160a01b031603610fe3576101656000868381518110610fb357610fb361297c565b60209081029190910181015182528101919091526040016000205460ff16610fe357610fe0600184612920565b92505b80610fed81612933565b915050610ef3565b50909392505050565b60006001600160a01b03821661107c5760405162461bcd60e51b815260206004820152602960248201527f4552433732313a2061646472657373207a65726f206973206e6f74206120766160448201527f6c6964206f776e657200000000000000000000000000000000000000000000006064820152608401610773565b506001600160a01b0316600090815260cc602052604090205490565b6110a0611987565b6110aa60006119e1565b565b606060ca805461063990612897565b6110c6338383611a33565b5050565b6110d2611987565b61016080546001600160a01b0319166001600160a01b0392909216919091179055565b6110ff3383611601565b6111615760405162461bcd60e51b815260206004820152602d60248201527f4552433732313a2063616c6c6572206973206e6f7420746f6b656e206f776e6560448201526c1c881bdc88185c1c1c9bdd9959609a1b6064820152608401610773565b61116d84848484611b01565b50505050565b61117b611987565b610163805460ff1916911515919091179055565b606061119a8261152f565b60006111a4611b7f565b905060008151116111c45760405180602001604052806000815250610bca565b806111ce84611b8f565b6040516020016111df929190612aa1565b6040516020818303038152906040529392505050565b6111fd611987565b6001600160a01b0381166112795760405162461bcd60e51b815260206004820152602660248201527f4f776e61626c653a206e6577206f776e657220697320746865207a65726f206160448201527f64647265737300000000000000000000000000000000000000000000000000006064820152608401610773565b611282816119e1565b50565b600061129060fd5490565b6101635490915060ff166112d45760405162461bcd60e51b815260206004820152600b60248201526a14d85b19481c185d5cd95960aa1b6044820152606401610773565b6101625481106113175760405162461bcd60e51b815260206004820152600e60248201526d4578636565647320737570706c7960901b6044820152606401610773565b6101605482516001600160a01b03909116906000906113785760405162461bcd60e51b815260206004820152600e60248201527f456d70747920746f6b656e4964730000000000000000000000000000000000006044820152606401610773565b60005b84518110156114d357336001600160a01b0316836001600160a01b0316636352211e8784815181106113af576113af61297c565b60200260200101516040518263ffffffff1660e01b81526004016113d591815260200190565b602060405180830381865afa1580156113f2573d6000803e3d6000fd5b505050506040513d601f19601f82011682018060405250810190611416919061295f565b6001600160a01b0316036114c157610165600086838151811061143b5761143b61297c565b60209081029190910181015182528101919091526040016000205460ff166114c15761146b33610af18387612920565b600161016560008784815181106114845761148461297c565b6020026020010151815260200190815260200160002060006101000a81548160ff0219169083151502179055506001826114be9190612920565b91505b806114cb81612933565b91505061137b565b508060000361116d5760405162461bcd60e51b815260206004820152600d60248201527f4e6f204e46547320666f756e64000000000000000000000000000000000000006044820152606401610773565b600061062482611c2f565b600081815260cb60205260409020546001600160a01b03166112825760405162461bcd60e51b815260206004820152601860248201527f4552433732313a20696e76616c696420746f6b656e20494400000000000000006044820152606401610773565b600081815260cd6020526040902080546001600160a01b0319166001600160a01b03841690811790915581906115c882610e6a565b6001600160a01b03167f8c5be1e5ebec7d5bd14f71427d1e84f3dd0314c0f7b2291e5b200ac8c7c3b92560405160405180910390a45050565b60008061160d83610e6a565b9050806001600160a01b0316846001600160a01b0316148061165457506001600160a01b03808216600090815260ce602090815260408083209388168352929052205460ff165b806116785750836001600160a01b031661166d846106bc565b6001600160a01b0316145b949350505050565b826001600160a01b031661169382610e6a565b6001600160a01b0316146116f75760405162461bcd60e51b815260206004820152602560248201527f4552433732313a207472616e736665722066726f6d20696e636f72726563742060448201526437bbb732b960d91b6064820152608401610773565b6001600160a01b0382166117725760405162461bcd60e51b8152602060048201526024808201527f4552433732313a207472616e7366657220746f20746865207a65726f2061646460448201527f72657373000000000000000000000000000000000000000000000000000000006064820152608401610773565b61177d838383611c6d565b826001600160a01b031661179082610e6a565b6001600160a01b0316146117f45760405162461bcd60e51b815260206004820152602560248201527f4552433732313a207472616e736665722066726f6d20696e636f72726563742060448201526437bbb732b960d91b6064820152608401610773565b600081815260cd6020908152604080832080546001600160a01b03199081169091556001600160a01b0387811680865260cc855283862080546000190190559087168086528386208054600101905586865260cb90945282852080549092168417909155905184937fddf252ad1be2c89b69c2b068fc378daa952ba7f163c4a11628f55a4df523b3ef91a4505050565b6110c6828260405180602001604052806000815250611c78565b600054610100900460ff166119095760405162461bcd60e51b815260206004820152602b60248201527f496e697469616c697a61626c653a20636f6e7472616374206973206e6f74206960448201526a6e697469616c697a696e6760a81b6064820152608401610773565b6110c68282611cf6565b600054610100900460ff1661197e5760405162461bcd60e51b815260206004820152602b60248201527f496e697469616c697a61626c653a20636f6e7472616374206973206e6f74206960448201526a6e697469616c697a696e6760a81b6064820152608401610773565b6110aa336119e1565b6033546001600160a01b031633146110aa5760405162461bcd60e51b815260206004820181905260248201527f4f776e61626c653a2063616c6c6572206973206e6f7420746865206f776e65726044820152606401610773565b603380546001600160a01b038381166001600160a01b0319831681179093556040519116919082907f8be0079c531659141344cd1fd0a4f28419497f9722a3daafe3b4186f6b6457e090600090a35050565b816001600160a01b0316836001600160a01b031603611a945760405162461bcd60e51b815260206004820152601960248201527f4552433732313a20617070726f766520746f2063616c6c6572000000000000006044820152606401610773565b6001600160a01b03838116600081815260ce6020908152604080832094871680845294825291829020805460ff191686151590811790915591519182527f17307eab39ab6107e8899845ad3d59bd9653f200f220920489ca2b5937696c31910160405180910390a3505050565b611b0c848484611680565b611b1884848484611d7a565b61116d5760405162461bcd60e51b815260206004820152603260248201527f4552433732313a207472616e7366657220746f206e6f6e20455243373231526560448201527131b2b4bb32b91034b6b83632b6b2b73a32b960711b6064820152608401610773565b6060610164805461063990612897565b60606000611b9c83611ec6565b600101905060008167ffffffffffffffff811115611bbc57611bbc612664565b6040519080825280601f01601f191660200182016040528015611be6576020820181803683370190505b5090508181016020015b600019017f3031323334353637383961626364656600000000000000000000000000000000600a86061a8153600a8504945084611bf057509392505050565b60006001600160e01b031982167f780e9d63000000000000000000000000000000000000000000000000000000001480610624575061062482611fa8565b61081483838361201a565b611c8283836120d8565b611c8f6000848484611d7a565b6108145760405162461bcd60e51b815260206004820152603260248201527f4552433732313a207472616e7366657220746f206e6f6e20455243373231526560448201527131b2b4bb32b91034b6b83632b6b2b73a32b960711b6064820152608401610773565b600054610100900460ff16611d615760405162461bcd60e51b815260206004820152602b60248201527f496e697469616c697a61626c653a20636f6e7472616374206973206e6f74206960448201526a6e697469616c697a696e6760a81b6064820152608401610773565b60c9611d6d8382612ad0565b5060ca6108148282612ad0565b60006001600160a01b0384163b15611ebb57604051630a85bd0160e11b81526001600160a01b0385169063150b7a0290611dbe903390899088908890600401612b90565b6020604051808303816000875af1925050508015611df9575060408051601f3d908101601f19168201909252611df691810190612bcc565b60015b611ea1573d808015611e27576040519150601f19603f3d011682016040523d82523d6000602084013e611e2c565b606091505b508051600003611e995760405162461bcd60e51b815260206004820152603260248201527f4552433732313a207472616e7366657220746f206e6f6e20455243373231526560448201527131b2b4bb32b91034b6b83632b6b2b73a32b960711b6064820152608401610773565b805181602001fd5b6001600160e01b031916630a85bd0160e11b149050611678565b506001949350505050565b6000807a184f03e93ff9f4daa797ed6e38ed64bf6a1f0100000000000000008310611f0f577a184f03e93ff9f4daa797ed6e38ed64bf6a1f010000000000000000830492506040015b6d04ee2d6d415b85acef81000000008310611f3b576d04ee2d6d415b85acef8100000000830492506020015b662386f26fc100008310611f5957662386f26fc10000830492506010015b6305f5e1008310611f71576305f5e100830492506008015b6127108310611f8557612710830492506004015b60648310611f97576064830492506002015b600a83106106245760010192915050565b60006001600160e01b031982167f80ac58cd00000000000000000000000000000000000000000000000000000000148061200b57506001600160e01b031982167f5b5e139f00000000000000000000000000000000000000000000000000000000145b8061062457506106248261226f565b806001600160a01b038416612076576120718160fd8054600083815260fe60205260408120829055600182018355919091527f9346ac6dd7de6b96975fec380d4d994c4c12e6a8897544f22915316cc6cca2800155565b612099565b826001600160a01b0316846001600160a01b0316146120995761209984826122d6565b6001600160a01b0383166120b5576120b081612373565b61116d565b836001600160a01b0316836001600160a01b03161461116d5761116d8382612422565b6001600160a01b03821661212e5760405162461bcd60e51b815260206004820181905260248201527f4552433732313a206d696e7420746f20746865207a65726f20616464726573736044820152606401610773565b600081815260cb60205260409020546001600160a01b0316156121935760405162461bcd60e51b815260206004820152601c60248201527f4552433732313a20746f6b656e20616c7265616479206d696e746564000000006044820152606401610773565b61219f60008383611c6d565b600081815260cb60205260409020546001600160a01b0316156122045760405162461bcd60e51b815260206004820152601c60248201527f4552433732313a20746f6b656e20616c7265616479206d696e746564000000006044820152606401610773565b6001600160a01b038216600081815260cc602090815260408083208054600101905584835260cb90915280822080546001600160a01b0319168417905551839291907fddf252ad1be2c89b69c2b068fc378daa952ba7f163c4a11628f55a4df523b3ef908290a45050565b60006001600160e01b031982167f2a55205a00000000000000000000000000000000000000000000000000000000148061062457507f01ffc9a7000000000000000000000000000000000000000000000000000000006001600160e01b0319831614610624565b600060016122e384610ffe565b6122ed919061294c565b600083815260fc6020526040902054909150808214612340576001600160a01b038416600090815260fb60209081526040808320858452825280832054848452818420819055835260fc90915290208190555b50600091825260fc602090815260408084208490556001600160a01b03909416835260fb81528383209183525290812055565b60fd546000906123859060019061294c565b600083815260fe602052604081205460fd80549394509092849081106123ad576123ad61297c565b906000526020600020015490508060fd83815481106123ce576123ce61297c565b600091825260208083209091019290925582815260fe909152604080822084905585825281205560fd80548061240657612406612be9565b6001900381819060005260206000200160009055905550505050565b600061242d83610ffe565b6001600160a01b03909316600090815260fb60209081526040808320868452825280832085905593825260fc9052919091209190915550565b6001600160e01b03198116811461128257600080fd5b60006020828403121561248e57600080fd5b8135610bca81612466565b60005b838110156124b457818101518382015260200161249c565b50506000910152565b600081518084526124d5816020860160208601612499565b601f01601f19169290920160200192915050565b602081526000610bca60208301846124bd565b60006020828403121561250e57600080fd5b5035919050565b6001600160a01b038116811461128257600080fd5b6000806040838503121561253d57600080fd5b823561254881612515565b946020939093013593505050565b60008060006060848603121561256b57600080fd5b833561257681612515565b9250602084013561258681612515565b929592945050506040919091013590565b600080604083850312156125aa57600080fd5b50508035926020909101359150565b600080604083850312156125cc57600080fd5b82356125d781612515565b915060208301356125e781612515565b809150509250929050565b6000806020838503121561260557600080fd5b823567ffffffffffffffff8082111561261d57600080fd5b818501915085601f83011261263157600080fd5b81358181111561264057600080fd5b86602082850101111561265257600080fd5b60209290920196919550909350505050565b634e487b7160e01b600052604160045260246000fd5b604051601f8201601f1916810167ffffffffffffffff811182821017156126a3576126a3612664565b604052919050565b600060208083850312156126be57600080fd5b823567ffffffffffffffff808211156126d657600080fd5b818501915085601f8301126126ea57600080fd5b8135818111156126fc576126fc612664565b8060051b915061270d84830161267a565b818152918301840191848101908884111561272757600080fd5b938501935b838510156127455784358252938501939085019061272c565b98975050505050505050565b60006020828403121561276357600080fd5b8135610bca81612515565b8035801515811461277e57600080fd5b919050565b6000806040838503121561279657600080fd5b82356127a181612515565b91506127af6020840161276e565b90509250929050565b600080600080608085870312156127ce57600080fd5b84356127d981612515565b93506020858101356127ea81612515565b935060408601359250606086013567ffffffffffffffff8082111561280e57600080fd5b818801915088601f83011261282257600080fd5b81358181111561283457612834612664565b612846601f8201601f1916850161267a565b9150808252898482850101111561285c57600080fd5b808484018584013760008482840101525080935050505092959194509250565b60006020828403121561288e57600080fd5b610bca8261276e565b600181811c908216806128ab57607f821691505b6020821081036128cb57634e487b7160e01b600052602260045260246000fd5b50919050565b634e487b7160e01b600052601160045260246000fd5b8082028115828204841417610624576106246128d1565b60008261291b57634e487b7160e01b600052601260045260246000fd5b500490565b80820180821115610624576106246128d1565b600060018201612945576129456128d1565b5060010190565b81810381811115610624576106246128d1565b60006020828403121561297157600080fd5b8151610bca81612515565b634e487b7160e01b600052603260045260246000fd5b601f82111561081457600081815260208120601f850160051c810160208610156129b95750805b601f850160051c820191505b818110156129d8578281556001016129c5565b505050505050565b67ffffffffffffffff8311156129f8576129f8612664565b612a0c83612a068354612897565b83612992565b6000601f841160018114612a405760008515612a285750838201355b600019600387901b1c1916600186901b178355612a9a565b600083815260209020601f19861690835b82811015612a715786850135825560209485019460019092019101612a51565b5086821015612a8e5760001960f88860031b161c19848701351681555b505060018560011b0183555b5050505050565b60008351612ab3818460208801612499565b835190830190612ac7818360208801612499565b01949350505050565b815167ffffffffffffffff811115612aea57612aea612664565b612afe81612af88454612897565b84612992565b602080601f831160018114612b335760008415612b1b5750858301515b600019600386901b1c1916600185901b1785556129d8565b600085815260208120601f198616915b82811015612b6257888601518255948401946001909101908401612b43565b5085821015612b805787850151600019600388901b60f8161c191681555b5050505050600190811b01905550565b60006001600160a01b03808716835280861660208401525083604083015260806060830152612bc260808301846124bd565b9695505050505050565b600060208284031215612bde57600080fd5b8151610bca81612466565b634e487b7160e01b600052603160045260246000fdfea264697066735822122013a2e4ee469386c4102d168ac29a19d96891007064bc6eb1740ca6794e9bf63064736f6c63430008110033",
  "linkReferences": {},
  "deployedLinkReferences": {}
}